{
  "_format": "hh-sol-artifact-1",
  "contractName": "ERC721Sample",
  "sourceName": "contracts/erc721/ERC721Sample.sol",
  "abi": [
    {
      "inputs": [
        {
          "internalType": "string",
          "name": "name_",
          "type": "string"
        },
        {
          "internalType": "string",
          "name": "smbl_",
          "type": "string"
        }
      ],
      "stateMutability": "nonpayable",
      "type": "constructor"
    },
    {
      "anonymous": false,
      "inputs": [
        {
          "indexed": true,
          "internalType": "address",
          "name": "owner",
          "type": "address"
        },
        {
          "indexed": true,
          "internalType": "address",
          "name": "approved",
          "type": "address"
        },
        {
          "indexed": true,
          "internalType": "uint256",
          "name": "tokenId",
          "type": "uint256"
        }
      ],
      "name": "Approval",
      "type": "event"
    },
    {
      "anonymous": false,
      "inputs": [
        {
          "indexed": true,
          "internalType": "address",
          "name": "owner",
          "type": "address"
        },
        {
          "indexed": true,
          "internalType": "address",
          "name": "operator",
          "type": "address"
        },
        {
          "indexed": false,
          "internalType": "bool",
          "name": "approved",
          "type": "bool"
        }
      ],
      "name": "ApprovalForAll",
      "type": "event"
    },
    {
      "anonymous": false,
      "inputs": [
        {
          "indexed": false,
          "internalType": "address",
          "name": "receiver",
          "type": "address"
        },
        {
          "indexed": false,
          "internalType": "uint256",
          "name": "tokenId",
          "type": "uint256"
        }
      ],
      "name": "NewTokenCreated",
      "type": "event"
    },
    {
      "anonymous": false,
      "inputs": [
        {
          "indexed": true,
          "internalType": "address",
          "name": "previousOwner",
          "type": "address"
        },
        {
          "indexed": true,
          "internalType": "address",
          "name": "newOwner",
          "type": "address"
        }
      ],
      "name": "OwnershipTransferred",
      "type": "event"
    },
    {
      "anonymous": false,
      "inputs": [
        {
          "indexed": true,
          "internalType": "address",
          "name": "from",
          "type": "address"
        },
        {
          "indexed": true,
          "internalType": "address",
          "name": "to",
          "type": "address"
        },
        {
          "indexed": true,
          "internalType": "uint256",
          "name": "tokenId",
          "type": "uint256"
        }
      ],
      "name": "Transfer",
      "type": "event"
    },
    {
      "inputs": [
        {
          "internalType": "address",
          "name": "to",
          "type": "address"
        },
        {
          "internalType": "uint256",
          "name": "tokenId",
          "type": "uint256"
        }
      ],
      "name": "approve",
      "outputs": [],
      "stateMutability": "nonpayable",
      "type": "function"
    },
    {
      "inputs": [
        {
          "internalType": "address",
          "name": "owner",
          "type": "address"
        }
      ],
      "name": "balanceOf",
      "outputs": [
        {
          "internalType": "uint256",
          "name": "",
          "type": "uint256"
        }
      ],
      "stateMutability": "view",
      "type": "function"
    },
    {
      "inputs": [
        {
          "internalType": "uint256",
          "name": "tokenId",
          "type": "uint256"
        }
      ],
      "name": "getApproved",
      "outputs": [
        {
          "internalType": "address",
          "name": "",
          "type": "address"
        }
      ],
      "stateMutability": "view",
      "type": "function"
    },
    {
      "inputs": [
        {
          "internalType": "address",
          "name": "owner",
          "type": "address"
        },
        {
          "internalType": "address",
          "name": "operator",
          "type": "address"
        }
      ],
      "name": "isApprovedForAll",
      "outputs": [
        {
          "internalType": "bool",
          "name": "",
          "type": "bool"
        }
      ],
      "stateMutability": "view",
      "type": "function"
    },
    {
      "inputs": [
        {
          "internalType": "address",
          "name": "receiver",
          "type": "address"
        }
      ],
      "name": "mintNft",
      "outputs": [
        {
          "internalType": "uint256",
          "name": "",
          "type": "uint256"
        }
      ],
      "stateMutability": "nonpayable",
      "type": "function"
    },
    {
      "inputs": [],
      "name": "name",
      "outputs": [
        {
          "internalType": "string",
          "name": "",
          "type": "string"
        }
      ],
      "stateMutability": "view",
      "type": "function"
    },
    {
      "inputs": [],
      "name": "owner",
      "outputs": [
        {
          "internalType": "address",
          "name": "",
          "type": "address"
        }
      ],
      "stateMutability": "view",
      "type": "function"
    },
    {
      "inputs": [
        {
          "internalType": "uint256",
          "name": "tokenId",
          "type": "uint256"
        }
      ],
      "name": "ownerOf",
      "outputs": [
        {
          "internalType": "address",
          "name": "",
          "type": "address"
        }
      ],
      "stateMutability": "view",
      "type": "function"
    },
    {
      "inputs": [],
      "name": "renounceOwnership",
      "outputs": [],
      "stateMutability": "nonpayable",
      "type": "function"
    },
    {
      "inputs": [
        {
          "internalType": "address",
          "name": "from",
          "type": "address"
        },
        {
          "internalType": "address",
          "name": "to",
          "type": "address"
        },
        {
          "internalType": "uint256",
          "name": "tokenId",
          "type": "uint256"
        }
      ],
      "name": "safeTransferFrom",
      "outputs": [],
      "stateMutability": "nonpayable",
      "type": "function"
    },
    {
      "inputs": [
        {
          "internalType": "address",
          "name": "from",
          "type": "address"
        },
        {
          "internalType": "address",
          "name": "to",
          "type": "address"
        },
        {
          "internalType": "uint256",
          "name": "tokenId",
          "type": "uint256"
        },
        {
          "internalType": "bytes",
          "name": "_data",
          "type": "bytes"
        }
      ],
      "name": "safeTransferFrom",
      "outputs": [],
      "stateMutability": "nonpayable",
      "type": "function"
    },
    {
      "inputs": [
        {
          "internalType": "address",
          "name": "operator",
          "type": "address"
        },
        {
          "internalType": "bool",
          "name": "approved",
          "type": "bool"
        }
      ],
      "name": "setApprovalForAll",
      "outputs": [],
      "stateMutability": "nonpayable",
      "type": "function"
    },
    {
      "inputs": [
        {
          "internalType": "bytes4",
          "name": "interfaceId",
          "type": "bytes4"
        }
      ],
      "name": "supportsInterface",
      "outputs": [
        {
          "internalType": "bool",
          "name": "",
          "type": "bool"
        }
      ],
      "stateMutability": "view",
      "type": "function"
    },
    {
      "inputs": [],
      "name": "symbol",
      "outputs": [
        {
          "internalType": "string",
          "name": "",
          "type": "string"
        }
      ],
      "stateMutability": "view",
      "type": "function"
    },
    {
      "inputs": [
        {
          "internalType": "uint256",
          "name": "index",
          "type": "uint256"
        }
      ],
      "name": "tokenByIndex",
      "outputs": [
        {
          "internalType": "uint256",
          "name": "",
          "type": "uint256"
        }
      ],
      "stateMutability": "view",
      "type": "function"
    },
    {
      "inputs": [
        {
          "internalType": "address",
          "name": "owner",
          "type": "address"
        },
        {
          "internalType": "uint256",
          "name": "index",
          "type": "uint256"
        }
      ],
      "name": "tokenOfOwnerByIndex",
      "outputs": [
        {
          "internalType": "uint256",
          "name": "",
          "type": "uint256"
        }
      ],
      "stateMutability": "view",
      "type": "function"
    },
    {
      "inputs": [
        {
          "internalType": "uint256",
          "name": "tokenId",
          "type": "uint256"
        }
      ],
      "name": "tokenURI",
      "outputs": [
        {
          "internalType": "string",
          "name": "",
          "type": "string"
        }
      ],
      "stateMutability": "view",
      "type": "function"
    },
    {
      "inputs": [],
      "name": "totalSupply",
      "outputs": [
        {
          "internalType": "uint256",
          "name": "",
          "type": "uint256"
        }
      ],
      "stateMutability": "view",
      "type": "function"
    },
    {
      "inputs": [
        {
          "internalType": "address",
          "name": "from",
          "type": "address"
        },
        {
          "internalType": "address",
          "name": "to",
          "type": "address"
        },
        {
          "internalType": "uint256",
          "name": "tokenId",
          "type": "uint256"
        }
      ],
      "name": "transferFrom",
      "outputs": [],
      "stateMutability": "nonpayable",
      "type": "function"
    },
    {
      "inputs": [
        {
          "internalType": "address",
          "name": "newOwner",
          "type": "address"
        }
      ],
      "name": "transferOwnership",
      "outputs": [],
      "stateMutability": "nonpayable",
      "type": "function"
    }
  ],
  "bytecode": "0x60806040523480156200001157600080fd5b506040516200385038038062003850833981810160405281019062000037919062000285565b818181600090805190602001906200005192919062000163565b5080600190805190602001906200006a92919062000163565b5050506200008d620000816200009560201b60201c565b6200009d60201b60201c565b505062000468565b600033905090565b6000600a60009054906101000a900473ffffffffffffffffffffffffffffffffffffffff16905081600a60006101000a81548173ffffffffffffffffffffffffffffffffffffffff021916908373ffffffffffffffffffffffffffffffffffffffff1602179055508173ffffffffffffffffffffffffffffffffffffffff168173ffffffffffffffffffffffffffffffffffffffff167f8be0079c531659141344cd1fd0a4f28419497f9722a3daafe3b4186f6b6457e060405160405180910390a35050565b82805462000171906200038d565b90600052602060002090601f016020900481019282620001955760008555620001e1565b82601f10620001b057805160ff1916838001178555620001e1565b82800160010185558215620001e1579182015b82811115620001e0578251825591602001919060010190620001c3565b5b509050620001f09190620001f4565b5090565b5b808211156200020f576000816000905550600101620001f5565b5090565b60006200022a620002248462000321565b620002f8565b9050828152602081018484840111156200024357600080fd5b6200025084828562000357565b509392505050565b600082601f8301126200026a57600080fd5b81516200027c84826020860162000213565b91505092915050565b600080604083850312156200029957600080fd5b600083015167ffffffffffffffff811115620002b457600080fd5b620002c28582860162000258565b925050602083015167ffffffffffffffff811115620002e057600080fd5b620002ee8582860162000258565b9150509250929050565b60006200030462000317565b9050620003128282620003c3565b919050565b6000604051905090565b600067ffffffffffffffff8211156200033f576200033e62000428565b5b6200034a8262000457565b9050602081019050919050565b60005b83811015620003775780820151818401526020810190506200035a565b8381111562000387576000848401525b50505050565b60006002820490506001821680620003a657607f821691505b60208210811415620003bd57620003bc620003f9565b5b50919050565b620003ce8262000457565b810181811067ffffffffffffffff82111715620003f057620003ef62000428565b5b80604052505050565b7f4e487b7100000000000000000000000000000000000000000000000000000000600052602260045260246000fd5b7f4e487b7100000000000000000000000000000000000000000000000000000000600052604160045260246000fd5b6000601f19601f8301169050919050565b6133d880620004786000396000f3fe608060405234801561001057600080fd5b506004361061012c5760003560e01c806370a08231116100ad578063b88d4fde11610071578063b88d4fde14610343578063c87b56dd1461035f578063e985e9c51461038f578063e9c2e14b146103bf578063f2fde38b146103ef5761012c565b806370a08231146102b1578063715018a6146102e15780638da5cb5b146102eb57806395d89b4114610309578063a22cb465146103275761012c565b806323b872dd116100f457806323b872dd146101e95780632f745c591461020557806342842e0e146102355780634f6ccce7146102515780636352211e146102815761012c565b806301ffc9a71461013157806306fdde0314610161578063081812fc1461017f578063095ea7b3146101af57806318160ddd146101cb575b600080fd5b61014b6004803603810190610146919061238f565b61040b565b6040516101589190612804565b60405180910390f35b610169610485565b604051610176919061281f565b60405180910390f35b610199600480360381019061019491906123e1565b610517565b6040516101a69190612774565b60405180910390f35b6101c960048036038101906101c49190612353565b61059c565b005b6101d36106b4565b6040516101e09190612a81565b60405180910390f35b61020360048036038101906101fe919061224d565b6106c1565b005b61021f600480360381019061021a9190612353565b610721565b60405161022c9190612a81565b60405180910390f35b61024f600480360381019061024a919061224d565b6107c6565b005b61026b600480360381019061026691906123e1565b6107e6565b6040516102789190612a81565b60405180910390f35b61029b600480360381019061029691906123e1565b61087d565b6040516102a89190612774565b60405180910390f35b6102cb60048036038101906102c691906121e8565b61092f565b6040516102d89190612a81565b60405180910390f35b6102e96109e7565b005b6102f3610a6f565b6040516103009190612774565b60405180910390f35b610311610a99565b60405161031e919061281f565b60405180910390f35b610341600480360381019061033c9190612317565b610b2b565b005b61035d6004803603810190610358919061229c565b610b41565b005b610379600480360381019061037491906123e1565b610ba3565b604051610386919061281f565b60405180910390f35b6103a960048036038101906103a49190612211565b610c4a565b6040516103b69190612804565b60405180910390f35b6103d960048036038101906103d491906121e8565b610cde565b6040516103e69190612a81565b60405180910390f35b610409600480360381019061040491906121e8565b610dc0565b005b60007f780e9d63000000000000000000000000000000000000000000000000000000007bffffffffffffffffffffffffffffffffffffffffffffffffffffffff1916827bffffffffffffffffffffffffffffffffffffffffffffffffffffffff1916148061047e575061047d82610eb8565b5b9050919050565b60606000805461049490612ca6565b80601f01602080910402602001604051908101604052809291908181526020018280546104c090612ca6565b801561050d5780601f106104e25761010080835404028352916020019161050d565b820191906000526020600020905b8154815290600101906020018083116104f057829003601f168201915b5050505050905090565b600061052282610f9a565b610561576040517f08c379a0000000000000000000000000000000000000000000000000000000008152600401610558906129c1565b60405180910390fd5b6004600083815260200190815260200160002060009054906101000a900473ffffffffffffffffffffffffffffffffffffffff169050919050565b60006105a78261087d565b90508073ffffffffffffffffffffffffffffffffffffffff168373ffffffffffffffffffffffffffffffffffffffff161415610618576040517f08c379a000000000000000000000000000000000000000000000000000000000815260040161060f90612a21565b60405180910390fd5b8073ffffffffffffffffffffffffffffffffffffffff16610637611006565b73ffffffffffffffffffffffffffffffffffffffff161480610666575061066581610660611006565b610c4a565b5b6106a5576040517f08c379a000000000000000000000000000000000000000000000000000000000815260040161069c90612941565b60405180910390fd5b6106af838361100e565b505050565b6000600880549050905090565b6106d26106cc611006565b826110c7565b610711576040517f08c379a000000000000000000000000000000000000000000000000000000000815260040161070890612a41565b60405180910390fd5b61071c8383836111a5565b505050565b600061072c8361092f565b821061076d576040517f08c379a000000000000000000000000000000000000000000000000000000000815260040161076490612841565b60405180910390fd5b600660008473ffffffffffffffffffffffffffffffffffffffff1673ffffffffffffffffffffffffffffffffffffffff168152602001908152602001600020600083815260200190815260200160002054905092915050565b6107e183838360405180602001604052806000815250610b41565b505050565b60006107f06106b4565b8210610831576040517f08c379a000000000000000000000000000000000000000000000000000000000815260040161082890612a61565b60405180910390fd5b6008828154811061086b577f4e487b7100000000000000000000000000000000000000000000000000000000600052603260045260246000fd5b90600052602060002001549050919050565b6000806002600084815260200190815260200160002060009054906101000a900473ffffffffffffffffffffffffffffffffffffffff169050600073ffffffffffffffffffffffffffffffffffffffff168173ffffffffffffffffffffffffffffffffffffffff161415610926576040517f08c379a000000000000000000000000000000000000000000000000000000000815260040161091d90612981565b60405180910390fd5b80915050919050565b60008073ffffffffffffffffffffffffffffffffffffffff168273ffffffffffffffffffffffffffffffffffffffff1614156109a0576040517f08c379a000000000000000000000000000000000000000000000000000000000815260040161099790612961565b60405180910390fd5b600360008373ffffffffffffffffffffffffffffffffffffffff1673ffffffffffffffffffffffffffffffffffffffff168152602001908152602001600020549050919050565b6109ef611006565b73ffffffffffffffffffffffffffffffffffffffff16610a0d610a6f565b73ffffffffffffffffffffffffffffffffffffffff1614610a63576040517f08c379a0000000000000000000000000000000000000000000000000000000008152600401610a5a906129e1565b60405180910390fd5b610a6d600061140c565b565b6000600a60009054906101000a900473ffffffffffffffffffffffffffffffffffffffff16905090565b606060018054610aa890612ca6565b80601f0160208091040260200160405190810160405280929190818152602001828054610ad490612ca6565b8015610b215780601f10610af657610100808354040283529160200191610b21565b820191906000526020600020905b815481529060010190602001808311610b0457829003601f168201915b5050505050905090565b610b3d610b36611006565b83836114d2565b5050565b610b52610b4c611006565b836110c7565b610b91576040517f08c379a0000000000000000000000000000000000000000000000000000000008152600401610b8890612a41565b60405180910390fd5b610b9d8484848461163f565b50505050565b6060610bae82610f9a565b610bed576040517f08c379a0000000000000000000000000000000000000000000000000000000008152600401610be490612a01565b60405180910390fd5b6000610bf761169b565b90506000815111610c175760405180602001604052806000815250610c42565b80610c21846116b2565b604051602001610c32929190612750565b6040516020818303038152906040525b915050919050565b6000600560008473ffffffffffffffffffffffffffffffffffffffff1673ffffffffffffffffffffffffffffffffffffffff16815260200190815260200160002060008373ffffffffffffffffffffffffffffffffffffffff1673ffffffffffffffffffffffffffffffffffffffff16815260200190815260200160002060009054906101000a900460ff16905092915050565b6000610ce8611006565b73ffffffffffffffffffffffffffffffffffffffff16610d06610a6f565b73ffffffffffffffffffffffffffffffffffffffff1614610d5c576040517f08c379a0000000000000000000000000000000000000000000000000000000008152600401610d53906129e1565b60405180910390fd5b610d66600b61185f565b6000610d72600b611875565b9050610d7e8382611883565b7f926cf7568edfc999d006009720ee2cdecd12e636d81b861c1c58cdadf855673f8382604051610daf9291906127db565b60405180910390a180915050919050565b610dc8611006565b73ffffffffffffffffffffffffffffffffffffffff16610de6610a6f565b73ffffffffffffffffffffffffffffffffffffffff1614610e3c576040517f08c379a0000000000000000000000000000000000000000000000000000000008152600401610e33906129e1565b60405180910390fd5b600073ffffffffffffffffffffffffffffffffffffffff168173ffffffffffffffffffffffffffffffffffffffff161415610eac576040517f08c379a0000000000000000000000000000000000000000000000000000000008152600401610ea390612881565b60405180910390fd5b610eb58161140c565b50565b60007f80ac58cd000000000000000000000000000000000000000000000000000000007bffffffffffffffffffffffffffffffffffffffffffffffffffffffff1916827bffffffffffffffffffffffffffffffffffffffffffffffffffffffff19161480610f8357507f5b5e139f000000000000000000000000000000000000000000000000000000007bffffffffffffffffffffffffffffffffffffffffffffffffffffffff1916827bffffffffffffffffffffffffffffffffffffffffffffffffffffffff1916145b80610f935750610f9282611a5d565b5b9050919050565b60008073ffffffffffffffffffffffffffffffffffffffff166002600084815260200190815260200160002060009054906101000a900473ffffffffffffffffffffffffffffffffffffffff1673ffffffffffffffffffffffffffffffffffffffff1614159050919050565b600033905090565b816004600083815260200190815260200160002060006101000a81548173ffffffffffffffffffffffffffffffffffffffff021916908373ffffffffffffffffffffffffffffffffffffffff160217905550808273ffffffffffffffffffffffffffffffffffffffff166110818361087d565b73ffffffffffffffffffffffffffffffffffffffff167f8c5be1e5ebec7d5bd14f71427d1e84f3dd0314c0f7b2291e5b200ac8c7c3b92560405160405180910390a45050565b60006110d282610f9a565b611111576040517f08c379a000000000000000000000000000000000000000000000000000000000815260040161110890612921565b60405180910390fd5b600061111c8361087d565b90508073ffffffffffffffffffffffffffffffffffffffff168473ffffffffffffffffffffffffffffffffffffffff16148061118b57508373ffffffffffffffffffffffffffffffffffffffff1661117384610517565b73ffffffffffffffffffffffffffffffffffffffff16145b8061119c575061119b8185610c4a565b5b91505092915050565b8273ffffffffffffffffffffffffffffffffffffffff166111c58261087d565b73ffffffffffffffffffffffffffffffffffffffff161461121b576040517f08c379a0000000000000000000000000000000000000000000000000000000008152600401611212906128a1565b60405180910390fd5b600073ffffffffffffffffffffffffffffffffffffffff168273ffffffffffffffffffffffffffffffffffffffff16141561128b576040517f08c379a0000000000000000000000000000000000000000000000000000000008152600401611282906128e1565b60405180910390fd5b611296838383611ac7565b6112a160008261100e565b6001600360008573ffffffffffffffffffffffffffffffffffffffff1673ffffffffffffffffffffffffffffffffffffffff16815260200190815260200160002060008282546112f19190612bbc565b925050819055506001600360008473ffffffffffffffffffffffffffffffffffffffff1673ffffffffffffffffffffffffffffffffffffffff16815260200190815260200160002060008282546113489190612b35565b92505081905550816002600083815260200190815260200160002060006101000a81548173ffffffffffffffffffffffffffffffffffffffff021916908373ffffffffffffffffffffffffffffffffffffffff160217905550808273ffffffffffffffffffffffffffffffffffffffff168473ffffffffffffffffffffffffffffffffffffffff167fddf252ad1be2c89b69c2b068fc378daa952ba7f163c4a11628f55a4df523b3ef60405160405180910390a4611407838383611bdb565b505050565b6000600a60009054906101000a900473ffffffffffffffffffffffffffffffffffffffff16905081600a60006101000a81548173ffffffffffffffffffffffffffffffffffffffff021916908373ffffffffffffffffffffffffffffffffffffffff1602179055508173ffffffffffffffffffffffffffffffffffffffff168173ffffffffffffffffffffffffffffffffffffffff167f8be0079c531659141344cd1fd0a4f28419497f9722a3daafe3b4186f6b6457e060405160405180910390a35050565b8173ffffffffffffffffffffffffffffffffffffffff168373ffffffffffffffffffffffffffffffffffffffff161415611541576040517f08c379a000000000000000000000000000000000000000000000000000000000815260040161153890612901565b60405180910390fd5b80600560008573ffffffffffffffffffffffffffffffffffffffff1673ffffffffffffffffffffffffffffffffffffffff16815260200190815260200160002060008473ffffffffffffffffffffffffffffffffffffffff1673ffffffffffffffffffffffffffffffffffffffff16815260200190815260200160002060006101000a81548160ff0219169083151502179055508173ffffffffffffffffffffffffffffffffffffffff168373ffffffffffffffffffffffffffffffffffffffff167f17307eab39ab6107e8899845ad3d59bd9653f200f220920489ca2b5937696c31836040516116329190612804565b60405180910390a3505050565b61164a8484846111a5565b61165684848484611be0565b611695576040517f08c379a000000000000000000000000000000000000000000000000000000000815260040161168c90612861565b60405180910390fd5b50505050565b606060405180602001604052806000815250905090565b606060008214156116fa576040518060400160405280600181526020017f3000000000000000000000000000000000000000000000000000000000000000815250905061185a565b600082905060005b6000821461172c57808061171590612d09565b915050600a826117259190612b8b565b9150611702565b60008167ffffffffffffffff81111561176e577f4e487b7100000000000000000000000000000000000000000000000000000000600052604160045260246000fd5b6040519080825280601f01601f1916602001820160405280156117a05781602001600182028036833780820191505090505b5090505b60008514611853576001826117b99190612bbc565b9150600a856117c89190612d52565b60306117d49190612b35565b60f81b818381518110611810577f4e487b7100000000000000000000000000000000000000000000000000000000600052603260045260246000fd5b60200101907effffffffffffffffffffffffffffffffffffffffffffffffffffffffffffff1916908160001a905350600a8561184c9190612b8b565b94506117a4565b8093505050505b919050565b6001816000016000828254019250508190555050565b600081600001549050919050565b600073ffffffffffffffffffffffffffffffffffffffff168273ffffffffffffffffffffffffffffffffffffffff1614156118f3576040517f08c379a00000000000000000000000000000000000000000000000000000000081526004016118ea906129a1565b60405180910390fd5b6118fc81610f9a565b1561193c576040517f08c379a0000000000000000000000000000000000000000000000000000000008152600401611933906128c1565b60405180910390fd5b61194860008383611ac7565b6001600360008473ffffffffffffffffffffffffffffffffffffffff1673ffffffffffffffffffffffffffffffffffffffff16815260200190815260200160002060008282546119989190612b35565b92505081905550816002600083815260200190815260200160002060006101000a81548173ffffffffffffffffffffffffffffffffffffffff021916908373ffffffffffffffffffffffffffffffffffffffff160217905550808273ffffffffffffffffffffffffffffffffffffffff16600073ffffffffffffffffffffffffffffffffffffffff167fddf252ad1be2c89b69c2b068fc378daa952ba7f163c4a11628f55a4df523b3ef60405160405180910390a4611a5960008383611bdb565b5050565b60007f01ffc9a7000000000000000000000000000000000000000000000000000000007bffffffffffffffffffffffffffffffffffffffffffffffffffffffff1916827bffffffffffffffffffffffffffffffffffffffffffffffffffffffff1916149050919050565b611ad2838383611d77565b600073ffffffffffffffffffffffffffffffffffffffff168373ffffffffffffffffffffffffffffffffffffffff161415611b1557611b1081611d7c565b611b54565b8173ffffffffffffffffffffffffffffffffffffffff168373ffffffffffffffffffffffffffffffffffffffff1614611b5357611b528382611dc5565b5b5b600073ffffffffffffffffffffffffffffffffffffffff168273ffffffffffffffffffffffffffffffffffffffff161415611b9757611b9281611f32565b611bd6565b8273ffffffffffffffffffffffffffffffffffffffff168273ffffffffffffffffffffffffffffffffffffffff1614611bd557611bd48282612075565b5b5b505050565b505050565b6000611c018473ffffffffffffffffffffffffffffffffffffffff166120f4565b15611d6a578373ffffffffffffffffffffffffffffffffffffffff1663150b7a02611c2a611006565b8786866040518563ffffffff1660e01b8152600401611c4c949392919061278f565b602060405180830381600087803b158015611c6657600080fd5b505af1925050508015611c9757506040513d601f19601f82011682018060405250810190611c9491906123b8565b60015b611d1a573d8060008114611cc7576040519150601f19603f3d011682016040523d82523d6000602084013e611ccc565b606091505b50600081511415611d12576040517f08c379a0000000000000000000000000000000000000000000000000000000008152600401611d0990612861565b60405180910390fd5b805181602001fd5b63150b7a0260e01b7bffffffffffffffffffffffffffffffffffffffffffffffffffffffff1916817bffffffffffffffffffffffffffffffffffffffffffffffffffffffff191614915050611d6f565b600190505b949350505050565b505050565b6008805490506009600083815260200190815260200160002081905550600881908060018154018082558091505060019003906000526020600020016000909190919091505550565b60006001611dd28461092f565b611ddc9190612bbc565b9050600060076000848152602001908152602001600020549050818114611ec1576000600660008673ffffffffffffffffffffffffffffffffffffffff1673ffffffffffffffffffffffffffffffffffffffff168152602001908152602001600020600084815260200190815260200160002054905080600660008773ffffffffffffffffffffffffffffffffffffffff1673ffffffffffffffffffffffffffffffffffffffff168152602001908152602001600020600084815260200190815260200160002081905550816007600083815260200190815260200160002081905550505b6007600084815260200190815260200160002060009055600660008573ffffffffffffffffffffffffffffffffffffffff1673ffffffffffffffffffffffffffffffffffffffff16815260200190815260200160002060008381526020019081526020016000206000905550505050565b60006001600880549050611f469190612bbc565b9050600060096000848152602001908152602001600020549050600060088381548110611f9c577f4e487b7100000000000000000000000000000000000000000000000000000000600052603260045260246000fd5b906000526020600020015490508060088381548110611fe4577f4e487b7100000000000000000000000000000000000000000000000000000000600052603260045260246000fd5b906000526020600020018190555081600960008381526020019081526020016000208190555060096000858152602001908152602001600020600090556008805480612059577f4e487b7100000000000000000000000000000000000000000000000000000000600052603160045260246000fd5b6001900381819060005260206000200160009055905550505050565b60006120808361092f565b905081600660008573ffffffffffffffffffffffffffffffffffffffff1673ffffffffffffffffffffffffffffffffffffffff168152602001908152602001600020600083815260200190815260200160002081905550806007600084815260200190815260200160002081905550505050565b6000808273ffffffffffffffffffffffffffffffffffffffff163b119050919050565b600061212a61212584612ac1565b612a9c565b90508281526020810184848401111561214257600080fd5b61214d848285612c64565b509392505050565b60008135905061216481613346565b92915050565b6000813590506121798161335d565b92915050565b60008135905061218e81613374565b92915050565b6000815190506121a381613374565b92915050565b600082601f8301126121ba57600080fd5b81356121ca848260208601612117565b91505092915050565b6000813590506121e28161338b565b92915050565b6000602082840312156121fa57600080fd5b600061220884828501612155565b91505092915050565b6000806040838503121561222457600080fd5b600061223285828601612155565b925050602061224385828601612155565b9150509250929050565b60008060006060848603121561226257600080fd5b600061227086828701612155565b935050602061228186828701612155565b9250506040612292868287016121d3565b9150509250925092565b600080600080608085870312156122b257600080fd5b60006122c087828801612155565b94505060206122d187828801612155565b93505060406122e2878288016121d3565b925050606085013567ffffffffffffffff8111156122ff57600080fd5b61230b878288016121a9565b91505092959194509250565b6000806040838503121561232a57600080fd5b600061233885828601612155565b92505060206123498582860161216a565b9150509250929050565b6000806040838503121561236657600080fd5b600061237485828601612155565b9250506020612385858286016121d3565b9150509250929050565b6000602082840312156123a157600080fd5b60006123af8482850161217f565b91505092915050565b6000602082840312156123ca57600080fd5b60006123d884828501612194565b91505092915050565b6000602082840312156123f357600080fd5b6000612401848285016121d3565b91505092915050565b61241381612bf0565b82525050565b61242281612c02565b82525050565b600061243382612af2565b61243d8185612b08565b935061244d818560208601612c73565b61245681612e3f565b840191505092915050565b600061246c82612afd565b6124768185612b19565b9350612486818560208601612c73565b61248f81612e3f565b840191505092915050565b60006124a582612afd565b6124af8185612b2a565b93506124bf818560208601612c73565b80840191505092915050565b60006124d8602b83612b19565b91506124e382612e50565b604082019050919050565b60006124fb603283612b19565b915061250682612e9f565b604082019050919050565b600061251e602683612b19565b915061252982612eee565b604082019050919050565b6000612541602583612b19565b915061254c82612f3d565b604082019050919050565b6000612564601c83612b19565b915061256f82612f8c565b602082019050919050565b6000612587602483612b19565b915061259282612fb5565b604082019050919050565b60006125aa601983612b19565b91506125b582613004565b602082019050919050565b60006125cd602c83612b19565b91506125d88261302d565b604082019050919050565b60006125f0603883612b19565b91506125fb8261307c565b604082019050919050565b6000612613602a83612b19565b915061261e826130cb565b604082019050919050565b6000612636602983612b19565b91506126418261311a565b604082019050919050565b6000612659602083612b19565b915061266482613169565b602082019050919050565b600061267c602c83612b19565b915061268782613192565b604082019050919050565b600061269f602083612b19565b91506126aa826131e1565b602082019050919050565b60006126c2602f83612b19565b91506126cd8261320a565b604082019050919050565b60006126e5602183612b19565b91506126f082613259565b604082019050919050565b6000612708603183612b19565b9150612713826132a8565b604082019050919050565b600061272b602c83612b19565b9150612736826132f7565b604082019050919050565b61274a81612c5a565b82525050565b600061275c828561249a565b9150612768828461249a565b91508190509392505050565b6000602082019050612789600083018461240a565b92915050565b60006080820190506127a4600083018761240a565b6127b1602083018661240a565b6127be6040830185612741565b81810360608301526127d08184612428565b905095945050505050565b60006040820190506127f0600083018561240a565b6127fd6020830184612741565b9392505050565b60006020820190506128196000830184612419565b92915050565b600060208201905081810360008301526128398184612461565b905092915050565b6000602082019050818103600083015261285a816124cb565b9050919050565b6000602082019050818103600083015261287a816124ee565b9050919050565b6000602082019050818103600083015261289a81612511565b9050919050565b600060208201905081810360008301526128ba81612534565b9050919050565b600060208201905081810360008301526128da81612557565b9050919050565b600060208201905081810360008301526128fa8161257a565b9050919050565b6000602082019050818103600083015261291a8161259d565b9050919050565b6000602082019050818103600083015261293a816125c0565b9050919050565b6000602082019050818103600083015261295a816125e3565b9050919050565b6000602082019050818103600083015261297a81612606565b9050919050565b6000602082019050818103600083015261299a81612629565b9050919050565b600060208201905081810360008301526129ba8161264c565b9050919050565b600060208201905081810360008301526129da8161266f565b9050919050565b600060208201905081810360008301526129fa81612692565b9050919050565b60006020820190508181036000830152612a1a816126b5565b9050919050565b60006020820190508181036000830152612a3a816126d8565b9050919050565b60006020820190508181036000830152612a5a816126fb565b9050919050565b60006020820190508181036000830152612a7a8161271e565b9050919050565b6000602082019050612a966000830184612741565b92915050565b6000612aa6612ab7565b9050612ab28282612cd8565b919050565b6000604051905090565b600067ffffffffffffffff821115612adc57612adb612e10565b5b612ae582612e3f565b9050602081019050919050565b600081519050919050565b600081519050919050565b600082825260208201905092915050565b600082825260208201905092915050565b600081905092915050565b6000612b4082612c5a565b9150612b4b83612c5a565b9250827fffffffffffffffffffffffffffffffffffffffffffffffffffffffffffffffff03821115612b8057612b7f612d83565b5b828201905092915050565b6000612b9682612c5a565b9150612ba183612c5a565b925082612bb157612bb0612db2565b5b828204905092915050565b6000612bc782612c5a565b9150612bd283612c5a565b925082821015612be557612be4612d83565b5b828203905092915050565b6000612bfb82612c3a565b9050919050565b60008115159050919050565b60007fffffffff0000000000000000000000000000000000000000000000000000000082169050919050565b600073ffffffffffffffffffffffffffffffffffffffff82169050919050565b6000819050919050565b82818337600083830152505050565b60005b83811015612c91578082015181840152602081019050612c76565b83811115612ca0576000848401525b50505050565b60006002820490506001821680612cbe57607f821691505b60208210811415612cd257612cd1612de1565b5b50919050565b612ce182612e3f565b810181811067ffffffffffffffff82111715612d0057612cff612e10565b5b80604052505050565b6000612d1482612c5a565b91507fffffffffffffffffffffffffffffffffffffffffffffffffffffffffffffffff821415612d4757612d46612d83565b5b600182019050919050565b6000612d5d82612c5a565b9150612d6883612c5a565b925082612d7857612d77612db2565b5b828206905092915050565b7f4e487b7100000000000000000000000000000000000000000000000000000000600052601160045260246000fd5b7f4e487b7100000000000000000000000000000000000000000000000000000000600052601260045260246000fd5b7f4e487b7100000000000000000000000000000000000000000000000000000000600052602260045260246000fd5b7f4e487b7100000000000000000000000000000000000000000000000000000000600052604160045260246000fd5b6000601f19601f8301169050919050565b7f455243373231456e756d657261626c653a206f776e657220696e646578206f7560008201527f74206f6620626f756e6473000000000000000000000000000000000000000000602082015250565b7f4552433732313a207472616e7366657220746f206e6f6e20455243373231526560008201527f63656976657220696d706c656d656e7465720000000000000000000000000000602082015250565b7f4f776e61626c653a206e6577206f776e657220697320746865207a65726f206160008201527f6464726573730000000000000000000000000000000000000000000000000000602082015250565b7f4552433732313a207472616e736665722066726f6d20696e636f72726563742060008201527f6f776e6572000000000000000000000000000000000000000000000000000000602082015250565b7f4552433732313a20746f6b656e20616c7265616479206d696e74656400000000600082015250565b7f4552433732313a207472616e7366657220746f20746865207a65726f2061646460008201527f7265737300000000000000000000000000000000000000000000000000000000602082015250565b7f4552433732313a20617070726f766520746f2063616c6c657200000000000000600082015250565b7f4552433732313a206f70657261746f7220717565727920666f72206e6f6e657860008201527f697374656e7420746f6b656e0000000000000000000000000000000000000000602082015250565b7f4552433732313a20617070726f76652063616c6c6572206973206e6f74206f7760008201527f6e6572206e6f7220617070726f76656420666f7220616c6c0000000000000000602082015250565b7f4552433732313a2062616c616e636520717565727920666f7220746865207a6560008201527f726f206164647265737300000000000000000000000000000000000000000000602082015250565b7f4552433732313a206f776e657220717565727920666f72206e6f6e657869737460008201527f656e7420746f6b656e0000000000000000000000000000000000000000000000602082015250565b7f4552433732313a206d696e7420746f20746865207a65726f2061646472657373600082015250565b7f4552433732313a20617070726f76656420717565727920666f72206e6f6e657860008201527f697374656e7420746f6b656e0000000000000000000000000000000000000000602082015250565b7f4f776e61626c653a2063616c6c6572206973206e6f7420746865206f776e6572600082015250565b7f4552433732314d657461646174613a2055524920717565727920666f72206e6f60008201527f6e6578697374656e7420746f6b656e0000000000000000000000000000000000602082015250565b7f4552433732313a20617070726f76616c20746f2063757272656e74206f776e6560008201527f7200000000000000000000000000000000000000000000000000000000000000602082015250565b7f4552433732313a207472616e736665722063616c6c6572206973206e6f74206f60008201527f776e6572206e6f7220617070726f766564000000000000000000000000000000602082015250565b7f455243373231456e756d657261626c653a20676c6f62616c20696e646578206f60008201527f7574206f6620626f756e64730000000000000000000000000000000000000000602082015250565b61334f81612bf0565b811461335a57600080fd5b50565b61336681612c02565b811461337157600080fd5b50565b61337d81612c0e565b811461338857600080fd5b50565b61339481612c5a565b811461339f57600080fd5b5056fea26469706673582212207dcecb84a43b13e67289b40e3c9de3f2b937cba1c9a4d057848da1b4b309d4ef64736f6c63430008040033",
  "linkReferences": {},
  "deployedLinkReferences": {}
}