{
  "_format": "hh-sol-artifact-1",
  "contractName": "Union",
  "sourceName": "contracts/Union.sol",
  "abi": [
    {
      "inputs": [
        {
          "internalType": "address",
          "name": "passportContract_",
          "type": "address"
        }
      ],
      "stateMutability": "nonpayable",
      "type": "constructor"
    },
    {
      "anonymous": false,
      "inputs": [
        {
          "indexed": false,
          "internalType": "string",
          "name": "chat_id",
          "type": "string"
        },
        {
          "indexed": false,
          "internalType": "string",
          "name": "applier_id",
          "type": "string"
        },
        {
          "indexed": false,
          "internalType": "address",
          "name": "multy_wallet_address",
          "type": "address"
        },
        {
          "indexed": false,
          "internalType": "enum Union.VotingType",
          "name": "vote_type",
          "type": "uint8"
        },
        {
          "indexed": false,
          "internalType": "address",
          "name": "voting_token_address",
          "type": "address"
        }
      ],
      "name": "ApplicationForJoin",
      "type": "event"
    },
    {
      "anonymous": false,
      "inputs": [
        {
          "indexed": false,
          "internalType": "string",
          "name": "chat_id",
          "type": "string"
        },
        {
          "indexed": false,
          "internalType": "address",
          "name": "multy_wallet_address",
          "type": "address"
        },
        {
          "indexed": false,
          "internalType": "enum Union.VotingType",
          "name": "vote_type",
          "type": "uint8"
        },
        {
          "indexed": false,
          "internalType": "address",
          "name": "voting_token_address",
          "type": "address"
        }
      ],
      "name": "ApprovedJoin",
      "type": "event"
    },
    {
      "anonymous": false,
      "inputs": [
        {
          "indexed": true,
          "internalType": "address",
          "name": "previousOwner",
          "type": "address"
        },
        {
          "indexed": true,
          "internalType": "address",
          "name": "newOwner",
          "type": "address"
        }
      ],
      "name": "OwnershipTransferred",
      "type": "event"
    },
    {
      "inputs": [
        {
          "internalType": "string",
          "name": "applyerTg",
          "type": "string"
        },
        {
          "internalType": "string",
          "name": "daoTg",
          "type": "string"
        },
        {
          "internalType": "address",
          "name": "dao_",
          "type": "address"
        },
        {
          "internalType": "enum Union.VotingType",
          "name": "votingType_",
          "type": "uint8"
        },
        {
          "internalType": "address",
          "name": "votingTokenContract_",
          "type": "address"
        }
      ],
      "name": "applyForUnion",
      "outputs": [],
      "stateMutability": "payable",
      "type": "function"
    },
    {
      "inputs": [
        {
          "internalType": "address",
          "name": "daoAddress",
          "type": "address"
        }
      ],
      "name": "approveJoin",
      "outputs": [],
      "stateMutability": "nonpayable",
      "type": "function"
    },
    {
      "inputs": [
        {
          "internalType": "string",
          "name": "",
          "type": "string"
        }
      ],
      "name": "daoAddresses",
      "outputs": [
        {
          "internalType": "address",
          "name": "",
          "type": "address"
        }
      ],
      "stateMutability": "view",
      "type": "function"
    },
    {
      "inputs": [
        {
          "internalType": "address",
          "name": "",
          "type": "address"
        }
      ],
      "name": "daos",
      "outputs": [
        {
          "internalType": "address",
          "name": "chatOwnerAddress",
          "type": "address"
        },
        {
          "internalType": "string",
          "name": "tgId",
          "type": "string"
        },
        {
          "internalType": "bool",
          "name": "valid",
          "type": "bool"
        },
        {
          "internalType": "address",
          "name": "multisigAddress",
          "type": "address"
        },
        {
          "internalType": "enum Union.VotingType",
          "name": "votingType",
          "type": "uint8"
        },
        {
          "internalType": "address",
          "name": "votingToken",
          "type": "address"
        }
      ],
      "stateMutability": "view",
      "type": "function"
    },
    {
      "inputs": [],
      "name": "owner",
      "outputs": [
        {
          "internalType": "address",
          "name": "",
          "type": "address"
        }
      ],
      "stateMutability": "view",
      "type": "function"
    },
    {
      "inputs": [],
      "name": "renounceOwnership",
      "outputs": [],
      "stateMutability": "nonpayable",
      "type": "function"
    },
    {
      "inputs": [],
      "name": "tgpassport",
      "outputs": [
        {
          "internalType": "contract TGPassport",
          "name": "",
          "type": "address"
        }
      ],
      "stateMutability": "view",
      "type": "function"
    },
    {
      "inputs": [
        {
          "internalType": "address",
          "name": "newOwner",
          "type": "address"
        }
      ],
      "name": "transferOwnership",
      "outputs": [],
      "stateMutability": "nonpayable",
      "type": "function"
    }
  ],
  "bytecode": "0x6080604052620000146200013060201b60201c565b600260006101000a81548173ffffffffffffffffffffffffffffffffffffffff021916908373ffffffffffffffffffffffffffffffffffffffff1602179055503480156200006157600080fd5b50604051620023123803806200231283398181016040528101906200008791906200023c565b620000a76200009b6200015960201b60201c565b6200016160201b60201c565b80600560006101000a81548173ffffffffffffffffffffffffffffffffffffffff021916908373ffffffffffffffffffffffffffffffffffffffff16021790555080600660006101000a81548173ffffffffffffffffffffffffffffffffffffffff021916908373ffffffffffffffffffffffffffffffffffffffff16021790555050620002b6565b60008060009054906101000a900473ffffffffffffffffffffffffffffffffffffffff16905090565b600033905090565b60008060009054906101000a900473ffffffffffffffffffffffffffffffffffffffff169050816000806101000a81548173ffffffffffffffffffffffffffffffffffffffff021916908373ffffffffffffffffffffffffffffffffffffffff1602179055508173ffffffffffffffffffffffffffffffffffffffff168173ffffffffffffffffffffffffffffffffffffffff167f8be0079c531659141344cd1fd0a4f28419497f9722a3daafe3b4186f6b6457e060405160405180910390a35050565b60008151905062000236816200029c565b92915050565b6000602082840312156200024f57600080fd5b60006200025f8482850162000225565b91505092915050565b600062000275826200027c565b9050919050565b600073ffffffffffffffffffffffffffffffffffffffff82169050919050565b620002a78162000268565b8114620002b357600080fd5b50565b61204c80620002c66000396000f3fe60806040526004361061007b5760003560e01c80638da5cb5b1161004e5780638da5cb5b14610128578063c25f3cf614610153578063c912882314610195578063f2fde38b146101b15761007b565b8063564f1139146100805780635c34780f146100a9578063715018a6146100e65780637527d5a1146100fd575b600080fd5b34801561008c57600080fd5b506100a760048036038101906100a2919061157d565b6101da565b005b3480156100b557600080fd5b506100d060048036038101906100cb91906115f8565b6106e7565b6040516100dd919061192b565b60405180910390f35b3480156100f257600080fd5b506100fb610730565b005b34801561010957600080fd5b506101126107b8565b60405161011f91906119c9565b60405180910390f35b34801561013457600080fd5b5061013d6107de565b60405161014a919061192b565b60405180910390f35b34801561015f57600080fd5b5061017a6004803603810190610175919061157d565b610807565b60405161018c96959493929190611946565b60405180910390f35b6101af60048036038101906101aa9190611639565b610945565b005b3480156101bd57600080fd5b506101d860048036038101906101d3919061157d565b611018565b005b6101e2611110565b73ffffffffffffffffffffffffffffffffffffffff166102006107de565b73ffffffffffffffffffffffffffffffffffffffff1614610256576040517f08c379a000000000000000000000000000000000000000000000000000000000815260040161024d90611b73565b60405180910390fd5b6000600460008373ffffffffffffffffffffffffffffffffffffffff1673ffffffffffffffffffffffffffffffffffffffff1681526020019081526020016000206040518060c00160405290816000820160009054906101000a900473ffffffffffffffffffffffffffffffffffffffff1673ffffffffffffffffffffffffffffffffffffffff1673ffffffffffffffffffffffffffffffffffffffff16815260200160018201805461030890611d27565b80601f016020809104026020016040519081016040528092919081815260200182805461033490611d27565b80156103815780601f1061035657610100808354040283529160200191610381565b820191906000526020600020905b81548152906001019060200180831161036457829003601f168201915b505050505081526020016002820160009054906101000a900460ff161515151581526020016002820160019054906101000a900473ffffffffffffffffffffffffffffffffffffffff1673ffffffffffffffffffffffffffffffffffffffff1673ffffffffffffffffffffffffffffffffffffffff1681526020016002820160159054906101000a900460ff166002811115610446577f4e487b7100000000000000000000000000000000000000000000000000000000600052602160045260246000fd5b600281111561047e577f4e487b7100000000000000000000000000000000000000000000000000000000600052602160045260246000fd5b81526020016003820160009054906101000a900473ffffffffffffffffffffffffffffffffffffffff1673ffffffffffffffffffffffffffffffffffffffff1673ffffffffffffffffffffffffffffffffffffffff16815250509050600181604001901515908115158152505080600460008473ffffffffffffffffffffffffffffffffffffffff1673ffffffffffffffffffffffffffffffffffffffff16815260200190815260200160002060008201518160000160006101000a81548173ffffffffffffffffffffffffffffffffffffffff021916908373ffffffffffffffffffffffffffffffffffffffff160217905550602082015181600101908051906020019061058e9291906113f4565b5060408201518160020160006101000a81548160ff02191690831515021790555060608201518160020160016101000a81548173ffffffffffffffffffffffffffffffffffffffff021916908373ffffffffffffffffffffffffffffffffffffffff16021790555060808201518160020160156101000a81548160ff02191690836002811115610647577f4e487b7100000000000000000000000000000000000000000000000000000000600052602160045260246000fd5b021790555060a08201518160030160006101000a81548173ffffffffffffffffffffffffffffffffffffffff021916908373ffffffffffffffffffffffffffffffffffffffff1602179055509050507ffebb10aa28a3f60a7bb7ac109fc821ae99fce5a09f60f103e2985fb0438c484b8160200151826060015183608001518460a001516040516106db9493929190611a06565b60405180910390a15050565b6003818051602081018201805184825260208301602085012081835280955050505050506000915054906101000a900473ffffffffffffffffffffffffffffffffffffffff1681565b610738611110565b73ffffffffffffffffffffffffffffffffffffffff166107566107de565b73ffffffffffffffffffffffffffffffffffffffff16146107ac576040517f08c379a00000000000000000000000000000000000000000000000000000000081526004016107a390611b73565b60405180910390fd5b6107b66000611118565b565b600660009054906101000a900473ffffffffffffffffffffffffffffffffffffffff1681565b60008060009054906101000a900473ffffffffffffffffffffffffffffffffffffffff16905090565b60046020528060005260406000206000915090508060000160009054906101000a900473ffffffffffffffffffffffffffffffffffffffff169080600101805461085090611d27565b80601f016020809104026020016040519081016040528092919081815260200182805461087c90611d27565b80156108c95780601f1061089e576101008083540402835291602001916108c9565b820191906000526020600020905b8154815290600101906020018083116108ac57829003601f168201915b5050505050908060020160009054906101000a900460ff16908060020160019054906101000a900473ffffffffffffffffffffffffffffffffffffffff16908060020160159054906101000a900460ff16908060030160009054906101000a900473ffffffffffffffffffffffffffffffffffffffff16905086565b6000600660009054906101000a900473ffffffffffffffffffffffffffffffffffffffff1673ffffffffffffffffffffffffffffffffffffffff1663263822eb876040518263ffffffff1660e01b81526004016109a291906119e4565b60206040518083038186803b1580156109ba57600080fd5b505afa1580156109ce573d6000803e3d6000fd5b505050506040513d601f19601f820116820180604052508101906109f291906115a6565b90503373ffffffffffffffffffffffffffffffffffffffff168173ffffffffffffffffffffffffffffffffffffffff1614610a62576040517f08c379a0000000000000000000000000000000000000000000000000000000008152600401610a5990611ab3565b60405180910390fd5b600073ffffffffffffffffffffffffffffffffffffffff16600386604051610a8a91906118ff565b908152602001604051809103902060009054906101000a900473ffffffffffffffffffffffffffffffffffffffff1673ffffffffffffffffffffffffffffffffffffffff1614610b0f576040517f08c379a0000000000000000000000000000000000000000000000000000000008152600401610b0690611b33565b60405180910390fd5b83600386604051610b2091906118ff565b908152602001604051809103902060006101000a81548173ffffffffffffffffffffffffffffffffffffffff021916908373ffffffffffffffffffffffffffffffffffffffff1602179055506000610b7884846111dc565b90506001151581151514610bc1576040517f08c379a0000000000000000000000000000000000000000000000000000000008152600401610bb890611b53565b60405180910390fd5b600660009054906101000a900473ffffffffffffffffffffffffffffffffffffffff1673ffffffffffffffffffffffffffffffffffffffff166348dc15616040518163ffffffff1660e01b815260040160206040518083038186803b158015610c2957600080fd5b505afa158015610c3d573d6000803e3d6000fd5b505050506040513d601f19601f82011682018060405250810190610c6191906116e0565b6001819055506040518060c001604052803373ffffffffffffffffffffffffffffffffffffffff1681526020018781526020016000151581526020018673ffffffffffffffffffffffffffffffffffffffff168152602001856002811115610cf2577f4e487b7100000000000000000000000000000000000000000000000000000000600052602160045260246000fd5b81526020018473ffffffffffffffffffffffffffffffffffffffff16815250600460008773ffffffffffffffffffffffffffffffffffffffff1673ffffffffffffffffffffffffffffffffffffffff16815260200190815260200160002060008201518160000160006101000a81548173ffffffffffffffffffffffffffffffffffffffff021916908373ffffffffffffffffffffffffffffffffffffffff1602179055506020820151816001019080519060200190610db39291906113f4565b5060408201518160020160006101000a81548160ff02191690831515021790555060608201518160020160016101000a81548173ffffffffffffffffffffffffffffffffffffffff021916908373ffffffffffffffffffffffffffffffffffffffff16021790555060808201518160020160156101000a81548160ff02191690836002811115610e6c577f4e487b7100000000000000000000000000000000000000000000000000000000600052602160045260246000fd5b021790555060a08201518160030160006101000a81548173ffffffffffffffffffffffffffffffffffffffff021916908373ffffffffffffffffffffffffffffffffffffffff1602179055509050506000600260009054906101000a900473ffffffffffffffffffffffffffffffffffffffff1673ffffffffffffffffffffffffffffffffffffffff16600154604051610f0590611916565b60006040518083038185875af1925050503d8060008114610f42576040519150601f19603f3d011682016040523d82523d6000602084013e610f47565b606091505b5050905080610f8b576040517f08c379a0000000000000000000000000000000000000000000000000000000008152600401610f8290611af3565b60405180910390fd5b6001543414610fcf576040517f08c379a0000000000000000000000000000000000000000000000000000000008152600401610fc690611b13565b60405180910390fd5b7f829e7a1d0527546d71c2b19a98fc782e3f2695ac9f8662ed2a57353a3820332f8789888888604051611006959493929190611a52565b60405180910390a15050505050505050565b611020611110565b73ffffffffffffffffffffffffffffffffffffffff1661103e6107de565b73ffffffffffffffffffffffffffffffffffffffff1614611094576040517f08c379a000000000000000000000000000000000000000000000000000000000815260040161108b90611b73565b60405180910390fd5b600073ffffffffffffffffffffffffffffffffffffffff168173ffffffffffffffffffffffffffffffffffffffff161415611104576040517f08c379a00000000000000000000000000000000000000000000000000000000081526004016110fb90611ad3565b60405180910390fd5b61110d81611118565b50565b600033905090565b60008060009054906101000a900473ffffffffffffffffffffffffffffffffffffffff169050816000806101000a81548173ffffffffffffffffffffffffffffffffffffffff021916908373ffffffffffffffffffffffffffffffffffffffff1602179055508173ffffffffffffffffffffffffffffffffffffffff168173ffffffffffffffffffffffffffffffffffffffff167f8be0079c531659141344cd1fd0a4f28419497f9722a3daafe3b4186f6b6457e060405160405180910390a35050565b6000600280811115611217577f4e487b7100000000000000000000000000000000000000000000000000000000600052602160045260246000fd5b836002811115611250577f4e487b7100000000000000000000000000000000000000000000000000000000600052602160045260246000fd5b14156112ed578173ffffffffffffffffffffffffffffffffffffffff166301ffc9a763780e9d6360e01b6040518263ffffffff1660e01b815260040161129691906119ae565b60206040518083038186803b1580156112ae57600080fd5b505afa1580156112c2573d6000803e3d6000fd5b505050506040513d601f19601f820116820180604052508101906112e691906115cf565b90506113ee565b60006002811115611327577f4e487b7100000000000000000000000000000000000000000000000000000000600052602160045260246000fd5b836002811115611360577f4e487b7100000000000000000000000000000000000000000000000000000000600052602160045260246000fd5b14156113ed5760128273ffffffffffffffffffffffffffffffffffffffff1663313ce5676040518163ffffffff1660e01b815260040160206040518083038186803b1580156113ae57600080fd5b505afa1580156113c2573d6000803e3d6000fd5b505050506040513d601f19601f820116820180604052508101906113e69190611709565b60ff161490505b5b92915050565b82805461140090611d27565b90600052602060002090601f0160209004810192826114225760008555611469565b82601f1061143b57805160ff1916838001178555611469565b82800160010185558215611469579182015b8281111561146857825182559160200191906001019061144d565b5b509050611476919061147a565b5090565b5b8082111561149357600081600090555060010161147b565b5090565b60006114aa6114a584611bb8565b611b93565b9050828152602081018484840111156114c257600080fd5b6114cd848285611ce5565b509392505050565b6000813590506114e481611faa565b92915050565b6000815190506114f981611faa565b92915050565b60008151905061150e81611fc1565b92915050565b60008135905061152381611fd8565b92915050565b600082601f83011261153a57600080fd5b813561154a848260208601611497565b91505092915050565b60008151905061156281611fe8565b92915050565b60008151905061157781611fff565b92915050565b60006020828403121561158f57600080fd5b600061159d848285016114d5565b91505092915050565b6000602082840312156115b857600080fd5b60006115c6848285016114ea565b91505092915050565b6000602082840312156115e157600080fd5b60006115ef848285016114ff565b91505092915050565b60006020828403121561160a57600080fd5b600082013567ffffffffffffffff81111561162457600080fd5b61163084828501611529565b91505092915050565b600080600080600060a0868803121561165157600080fd5b600086013567ffffffffffffffff81111561166b57600080fd5b61167788828901611529565b955050602086013567ffffffffffffffff81111561169457600080fd5b6116a088828901611529565b94505060406116b1888289016114d5565b93505060606116c288828901611514565b92505060806116d3888289016114d5565b9150509295509295909350565b6000602082840312156116f257600080fd5b600061170084828501611553565b91505092915050565b60006020828403121561171b57600080fd5b600061172984828501611568565b91505092915050565b61173b81611c1b565b82525050565b61174a81611c2d565b82525050565b61175981611c39565b82525050565b61176881611caf565b82525050565b61177781611cd3565b82525050565b600061178882611be9565b6117928185611bff565b93506117a2818560208601611cf4565b6117ab81611e17565b840191505092915050565b60006117c182611be9565b6117cb8185611c10565b93506117db818560208601611cf4565b80840191505092915050565b60006117f4601683611bff565b91506117ff82611e28565b602082019050919050565b6000611817602683611bff565b915061182282611e51565b604082019050919050565b600061183a601683611bff565b915061184582611ea0565b602082019050919050565b600061185d601883611bff565b915061186882611ec9565b602082019050919050565b6000611880601c83611bff565b915061188b82611ef2565b602082019050919050565b60006118a3602f83611bff565b91506118ae82611f1b565b604082019050919050565b60006118c6602083611bff565b91506118d182611f6a565b602082019050919050565b60006118e9600083611bf4565b91506118f482611f93565b600082019050919050565b600061190b82846117b6565b915081905092915050565b6000611921826118dc565b9150819050919050565b60006020820190506119406000830184611732565b92915050565b600060c08201905061195b6000830189611732565b818103602083015261196d818861177d565b905061197c6040830187611741565b6119896060830186611732565b611996608083018561176e565b6119a360a0830184611732565b979650505050505050565b60006020820190506119c36000830184611750565b92915050565b60006020820190506119de600083018461175f565b92915050565b600060208201905081810360008301526119fe818461177d565b905092915050565b60006080820190508181036000830152611a20818761177d565b9050611a2f6020830186611732565b611a3c604083018561176e565b611a496060830184611732565b95945050505050565b600060a0820190508181036000830152611a6c818861177d565b90508181036020830152611a80818761177d565b9050611a8f6040830186611732565b611a9c606083018561176e565b611aa96080830184611732565b9695505050505050565b60006020820190508181036000830152611acc816117e7565b9050919050565b60006020820190508181036000830152611aec8161180a565b9050919050565b60006020820190508181036000830152611b0c8161182d565b9050919050565b60006020820190508181036000830152611b2c81611850565b9050919050565b60006020820190508181036000830152611b4c81611873565b9050919050565b60006020820190508181036000830152611b6c81611896565b9050919050565b60006020820190508181036000830152611b8c816118b9565b9050919050565b6000611b9d611bae565b9050611ba98282611d59565b919050565b6000604051905090565b600067ffffffffffffffff821115611bd357611bd2611de8565b5b611bdc82611e17565b9050602081019050919050565b600081519050919050565b600081905092915050565b600082825260208201905092915050565b600081905092915050565b6000611c2682611c78565b9050919050565b60008115159050919050565b60007fffffffff0000000000000000000000000000000000000000000000000000000082169050919050565b6000819050611c7382611f96565b919050565b600073ffffffffffffffffffffffffffffffffffffffff82169050919050565b6000819050919050565b600060ff82169050919050565b6000611cba82611cc1565b9050919050565b6000611ccc82611c78565b9050919050565b6000611cde82611c65565b9050919050565b82818337600083830152505050565b60005b83811015611d12578082015181840152602081019050611cf7565b83811115611d21576000848401525b50505050565b60006002820490506001821680611d3f57607f821691505b60208210811415611d5357611d52611db9565b5b50919050565b611d6282611e17565b810181811067ffffffffffffffff82111715611d8157611d80611de8565b5b80604052505050565b7f4e487b7100000000000000000000000000000000000000000000000000000000600052602160045260246000fd5b7f4e487b7100000000000000000000000000000000000000000000000000000000600052602260045260246000fd5b7f4e487b7100000000000000000000000000000000000000000000000000000000600052604160045260246000fd5b6000601f19601f8301169050919050565b7f5573657220646964206e6f742072656769737472656400000000000000000000600082015250565b7f4f776e61626c653a206e6577206f776e657220697320746865207a65726f206160008201527f6464726573730000000000000000000000000000000000000000000000000000602082015250565b7f556e61626c6520746f207472616e736665722066656500000000000000000000600082015250565b7f50617373706f727420666565206973206e6f7420706169640000000000000000600082015250565b7f746869732063686174207467696420616c72656164792074616b656e00000000600082015250565b7f436f6e747261637420646f6573206e6f74206d61746368207769746820636f7260008201527f726573706f6e64696e6720747970650000000000000000000000000000000000602082015250565b7f4f776e61626c653a2063616c6c6572206973206e6f7420746865206f776e6572600082015250565b50565b60038110611fa757611fa6611d8a565b5b50565b611fb381611c1b565b8114611fbe57600080fd5b50565b611fca81611c2d565b8114611fd557600080fd5b50565b60038110611fe557600080fd5b50565b611ff181611c98565b8114611ffc57600080fd5b50565b61200881611ca2565b811461201357600080fd5b5056fea2646970667358221220e01ac3721b89bd8545ff3767008619acb963e556bdf30a94b4c26be8ca9efd1764736f6c63430008040033",
  "linkReferences": {},
  "deployedLinkReferences": {}
}