{
  "_format": "hh-sol-artifact-1",
  "contractName": "TGPassport",
  "sourceName": "contracts/TGPassport.sol",
  "abi": [
    {
      "inputs": [],
      "stateMutability": "nonpayable",
      "type": "constructor"
    },
    {
      "anonymous": false,
      "inputs": [
        {
          "indexed": true,
          "internalType": "address",
          "name": "previousOwner",
          "type": "address"
        },
        {
          "indexed": true,
          "internalType": "address",
          "name": "newOwner",
          "type": "address"
        }
      ],
      "name": "OwnershipTransferred",
      "type": "event"
    },
    {
      "anonymous": false,
      "inputs": [
        {
          "indexed": false,
          "internalType": "string",
          "name": "applyerTg",
          "type": "string"
        },
        {
          "indexed": false,
          "internalType": "address",
          "name": "wallet_address",
          "type": "address"
        }
      ],
      "name": "passportApplied",
      "type": "event"
    },
    {
      "anonymous": false,
      "inputs": [
        {
          "indexed": false,
          "internalType": "string",
          "name": "applyerTg",
          "type": "string"
        },
        {
          "indexed": false,
          "internalType": "address",
          "name": "wallet_address",
          "type": "address"
        },
        {
          "indexed": false,
          "internalType": "address",
          "name": "issuer",
          "type": "address"
        }
      ],
      "name": "passportApproved",
      "type": "event"
    },
    {
      "inputs": [
        {
          "internalType": "string",
          "name": "applyerTg",
          "type": "string"
        }
      ],
      "name": "ApplyForPassport",
      "outputs": [],
      "stateMutability": "payable",
      "type": "function"
    },
    {
      "inputs": [
        {
          "internalType": "address",
          "name": "passportToApprove",
          "type": "address"
        }
      ],
      "name": "ApprovePassport",
      "outputs": [],
      "stateMutability": "nonpayable",
      "type": "function"
    },
    {
      "inputs": [],
      "name": "GetOwner",
      "outputs": [
        {
          "internalType": "address",
          "name": "",
          "type": "address"
        }
      ],
      "stateMutability": "view",
      "type": "function"
    },
    {
      "inputs": [
        {
          "internalType": "address",
          "name": "user_wallet",
          "type": "address"
        }
      ],
      "name": "GetPassportByAddress",
      "outputs": [
        {
          "components": [
            {
              "internalType": "address",
              "name": "userAddress",
              "type": "address"
            },
            {
              "internalType": "string",
              "name": "tgId",
              "type": "string"
            },
            {
              "internalType": "bool",
              "name": "valid",
              "type": "bool"
            },
            {
              "internalType": "address",
              "name": "validatorAddress",
              "type": "address"
            }
          ],
          "internalType": "struct TGPassport.Passport",
          "name": "",
          "type": "tuple"
        }
      ],
      "stateMutability": "view",
      "type": "function"
    },
    {
      "inputs": [],
      "name": "GetPassportFee",
      "outputs": [
        {
          "internalType": "uint256",
          "name": "",
          "type": "uint256"
        }
      ],
      "stateMutability": "view",
      "type": "function"
    },
    {
      "inputs": [
        {
          "internalType": "string",
          "name": "tgId_",
          "type": "string"
        }
      ],
      "name": "GetPassportWalletByID",
      "outputs": [
        {
          "internalType": "address",
          "name": "",
          "type": "address"
        }
      ],
      "stateMutability": "view",
      "type": "function"
    },
    {
      "inputs": [
        {
          "internalType": "uint256",
          "name": "passportFee_",
          "type": "uint256"
        }
      ],
      "name": "SetPassportFee",
      "outputs": [],
      "stateMutability": "nonpayable",
      "type": "function"
    },
    {
      "inputs": [],
      "name": "owner",
      "outputs": [
        {
          "internalType": "address",
          "name": "",
          "type": "address"
        }
      ],
      "stateMutability": "view",
      "type": "function"
    },
    {
      "inputs": [
        {
          "internalType": "address",
          "name": "",
          "type": "address"
        }
      ],
      "name": "passports",
      "outputs": [
        {
          "internalType": "address",
          "name": "userAddress",
          "type": "address"
        },
        {
          "internalType": "string",
          "name": "tgId",
          "type": "string"
        },
        {
          "internalType": "bool",
          "name": "valid",
          "type": "bool"
        },
        {
          "internalType": "address",
          "name": "validatorAddress",
          "type": "address"
        }
      ],
      "stateMutability": "view",
      "type": "function"
    },
    {
      "inputs": [],
      "name": "renounceOwnership",
      "outputs": [],
      "stateMutability": "nonpayable",
      "type": "function"
    },
    {
      "inputs": [
        {
          "internalType": "string",
          "name": "",
          "type": "string"
        }
      ],
      "name": "tgIdToAddress",
      "outputs": [
        {
          "internalType": "address",
          "name": "",
          "type": "address"
        }
      ],
      "stateMutability": "view",
      "type": "function"
    },
    {
      "inputs": [
        {
          "internalType": "address",
          "name": "newOwner",
          "type": "address"
        }
      ],
      "name": "transferOwnership",
      "outputs": [],
      "stateMutability": "nonpayable",
      "type": "function"
    }
  ],
  "bytecode": "0x608060405234801561001057600080fd5b5061002d61002261008860201b60201c565b61009060201b60201c565b606460018190555061004361015460201b60201c565b600260006101000a81548173ffffffffffffffffffffffffffffffffffffffff021916908373ffffffffffffffffffffffffffffffffffffffff16021790555061017d565b600033905090565b60008060009054906101000a900473ffffffffffffffffffffffffffffffffffffffff169050816000806101000a81548173ffffffffffffffffffffffffffffffffffffffff021916908373ffffffffffffffffffffffffffffffffffffffff1602179055508173ffffffffffffffffffffffffffffffffffffffff168173ffffffffffffffffffffffffffffffffffffffff167f8be0079c531659141344cd1fd0a4f28419497f9722a3daafe3b4186f6b6457e060405160405180910390a35050565b60008060009054906101000a900473ffffffffffffffffffffffffffffffffffffffff16905090565b611a99806200018d6000396000f3fe6080604052600436106100a75760003560e01c8063824edcad11610064578063824edcad146101bc57806386e81ba5146101d85780638da5cb5b14610215578063d2125bd214610240578063e37c132b14610269578063f2fde38b146102a9576100a7565b80630ae50a39146100ac5780631423ea07146100d75780631755e9e614610114578063263822eb1461013d57806348dc15611461017a578063715018a6146101a5575b600080fd5b3480156100b857600080fd5b506100c16102d2565b6040516100ce9190611529565b60405180910390f35b3480156100e357600080fd5b506100fe60048036038101906100f99190611224565b6102fc565b60405161010b91906116be565b60405180910390f35b34801561012057600080fd5b5061013b60048036038101906101369190611224565b6104b4565b005b34801561014957600080fd5b50610164600480360381019061015f919061124d565b610831565b6040516101719190611529565b60405180910390f35b34801561018657600080fd5b5061018f610879565b60405161019c91906116e0565b60405180910390f35b3480156101b157600080fd5b506101ba610883565b005b6101d660048036038101906101d1919061124d565b61090b565b005b3480156101e457600080fd5b506101ff60048036038101906101fa919061124d565b610bca565b60405161020c9190611529565b60405180910390f35b34801561022157600080fd5b5061022a610c13565b6040516102379190611529565b60405180910390f35b34801561024c57600080fd5b506102676004803603810190610262919061128e565b610c3c565b005b34801561027557600080fd5b50610290600480360381019061028b9190611224565b610cc2565b6040516102a09493929190611544565b60405180910390f35b3480156102b557600080fd5b506102d060048036038101906102cb9190611224565b610dc7565b005b6000600260009054906101000a900473ffffffffffffffffffffffffffffffffffffffff16905090565b610304611099565b6000600460008473ffffffffffffffffffffffffffffffffffffffff1673ffffffffffffffffffffffffffffffffffffffff1681526020019081526020016000206040518060800160405290816000820160009054906101000a900473ffffffffffffffffffffffffffffffffffffffff1673ffffffffffffffffffffffffffffffffffffffff1673ffffffffffffffffffffffffffffffffffffffff1681526020016001820180546103b69061181e565b80601f01602080910402602001604051908101604052809291908181526020018280546103e29061181e565b801561042f5780601f106104045761010080835404028352916020019161042f565b820191906000526020600020905b81548152906001019060200180831161041257829003601f168201915b505050505081526020016002820160009054906101000a900460ff161515151581526020016002820160019054906101000a900473ffffffffffffffffffffffffffffffffffffffff1673ffffffffffffffffffffffffffffffffffffffff1673ffffffffffffffffffffffffffffffffffffffff1681525050905080915050919050565b6104bc610ebf565b73ffffffffffffffffffffffffffffffffffffffff166104da610c13565b73ffffffffffffffffffffffffffffffffffffffff1614610530576040517f08c379a00000000000000000000000000000000000000000000000000000000081526004016105279061167e565b60405180910390fd5b6000600460008373ffffffffffffffffffffffffffffffffffffffff1673ffffffffffffffffffffffffffffffffffffffff168152602001908152602001600020600101805461057f9061181e565b80601f01602080910402602001604051908101604052809291908181526020018280546105ab9061181e565b80156105f85780601f106105cd576101008083540402835291602001916105f8565b820191906000526020600020905b8154815290600101906020018083116105db57829003601f168201915b5050505050905060001515600460008473ffffffffffffffffffffffffffffffffffffffff1673ffffffffffffffffffffffffffffffffffffffff16815260200190815260200160002060020160009054906101000a900460ff16151514610695576040517f08c379a000000000000000000000000000000000000000000000000000000000815260040161068c9061169e565b60405180910390fd5b60405180608001604052808373ffffffffffffffffffffffffffffffffffffffff1681526020018281526020016001151581526020013373ffffffffffffffffffffffffffffffffffffffff16815250600460008473ffffffffffffffffffffffffffffffffffffffff1673ffffffffffffffffffffffffffffffffffffffff16815260200190815260200160002060008201518160000160006101000a81548173ffffffffffffffffffffffffffffffffffffffff021916908373ffffffffffffffffffffffffffffffffffffffff16021790555060208201518160010190805190602001906107879291906110ef565b5060408201518160020160006101000a81548160ff02191690831515021790555060608201518160020160016101000a81548173ffffffffffffffffffffffffffffffffffffffff021916908373ffffffffffffffffffffffffffffffffffffffff1602179055509050507f425c0ff4dfba8976f680edd0bb8cd915c8ca31839207163b7bbcc3b72f4dd42f818333604051610825939291906115c0565b60405180910390a15050565b600060038260405161084391906114fd565b908152602001604051809103902060009054906101000a900473ffffffffffffffffffffffffffffffffffffffff169050919050565b6000600154905090565b61088b610ebf565b73ffffffffffffffffffffffffffffffffffffffff166108a9610c13565b73ffffffffffffffffffffffffffffffffffffffff16146108ff576040517f08c379a00000000000000000000000000000000000000000000000000000000081526004016108f69061167e565b60405180910390fd5b6109096000610ec7565b565b600033905061091a8282610f8b565b600154341461095e576040517f08c379a00000000000000000000000000000000000000000000000000000000081526004016109559061165e565b60405180910390fd5b60405180608001604052808273ffffffffffffffffffffffffffffffffffffffff168152602001838152602001600015158152602001600073ffffffffffffffffffffffffffffffffffffffff16815250600460003373ffffffffffffffffffffffffffffffffffffffff1673ffffffffffffffffffffffffffffffffffffffff16815260200190815260200160002060008201518160000160006101000a81548173ffffffffffffffffffffffffffffffffffffffff021916908373ffffffffffffffffffffffffffffffffffffffff1602179055506020820151816001019080519060200190610a519291906110ef565b5060408201518160020160006101000a81548160ff02191690831515021790555060608201518160020160016101000a81548173ffffffffffffffffffffffffffffffffffffffff021916908373ffffffffffffffffffffffffffffffffffffffff1602179055509050507f2578b8463fa9088621234109e3537776ec83fa33de185759f3a0616bfefe8e308233604051610aed929190611590565b60405180910390a16000600260009054906101000a900473ffffffffffffffffffffffffffffffffffffffff1673ffffffffffffffffffffffffffffffffffffffff16600154604051610b3f90611514565b60006040518083038185875af1925050503d8060008114610b7c576040519150601f19603f3d011682016040523d82523d6000602084013e610b81565b606091505b5050905080610bc5576040517f08c379a0000000000000000000000000000000000000000000000000000000008152600401610bbc9061161e565b60405180910390fd5b505050565b6003818051602081018201805184825260208301602085012081835280955050505050506000915054906101000a900473ffffffffffffffffffffffffffffffffffffffff1681565b60008060009054906101000a900473ffffffffffffffffffffffffffffffffffffffff16905090565b610c44610ebf565b73ffffffffffffffffffffffffffffffffffffffff16610c62610c13565b73ffffffffffffffffffffffffffffffffffffffff1614610cb8576040517f08c379a0000000000000000000000000000000000000000000000000000000008152600401610caf9061167e565b60405180910390fd5b8060018190555050565b60046020528060005260406000206000915090508060000160009054906101000a900473ffffffffffffffffffffffffffffffffffffffff1690806001018054610d0b9061181e565b80601f0160208091040260200160405190810160405280929190818152602001828054610d379061181e565b8015610d845780601f10610d5957610100808354040283529160200191610d84565b820191906000526020600020905b815481529060010190602001808311610d6757829003601f168201915b5050505050908060020160009054906101000a900460ff16908060020160019054906101000a900473ffffffffffffffffffffffffffffffffffffffff16905084565b610dcf610ebf565b73ffffffffffffffffffffffffffffffffffffffff16610ded610c13565b73ffffffffffffffffffffffffffffffffffffffff1614610e43576040517f08c379a0000000000000000000000000000000000000000000000000000000008152600401610e3a9061167e565b60405180910390fd5b600073ffffffffffffffffffffffffffffffffffffffff168173ffffffffffffffffffffffffffffffffffffffff161415610eb3576040517f08c379a0000000000000000000000000000000000000000000000000000000008152600401610eaa906115fe565b60405180910390fd5b610ebc81610ec7565b50565b600033905090565b60008060009054906101000a900473ffffffffffffffffffffffffffffffffffffffff169050816000806101000a81548173ffffffffffffffffffffffffffffffffffffffff021916908373ffffffffffffffffffffffffffffffffffffffff1602179055508173ffffffffffffffffffffffffffffffffffffffff168173ffffffffffffffffffffffffffffffffffffffff167f8be0079c531659141344cd1fd0a4f28419497f9722a3daafe3b4186f6b6457e060405160405180910390a35050565b600073ffffffffffffffffffffffffffffffffffffffff16600383604051610fb391906114fd565b908152602001604051809103902060009054906101000a900473ffffffffffffffffffffffffffffffffffffffff1673ffffffffffffffffffffffffffffffffffffffff1614611038576040517f08c379a000000000000000000000000000000000000000000000000000000000815260040161102f9061163e565b60405180910390fd5b8060038360405161104991906114fd565b908152602001604051809103902060006101000a81548173ffffffffffffffffffffffffffffffffffffffff021916908373ffffffffffffffffffffffffffffffffffffffff1602179055505050565b6040518060800160405280600073ffffffffffffffffffffffffffffffffffffffff16815260200160608152602001600015158152602001600073ffffffffffffffffffffffffffffffffffffffff1681525090565b8280546110fb9061181e565b90600052602060002090601f01602090048101928261111d5760008555611164565b82601f1061113657805160ff1916838001178555611164565b82800160010185558215611164579182015b82811115611163578251825591602001919060010190611148565b5b5090506111719190611175565b5090565b5b8082111561118e576000816000905550600101611176565b5090565b60006111a56111a084611720565b6116fb565b9050828152602081018484840111156111bd57600080fd5b6111c88482856117dc565b509392505050565b6000813590506111df81611a35565b92915050565b600082601f8301126111f657600080fd5b8135611206848260208601611192565b91505092915050565b60008135905061121e81611a4c565b92915050565b60006020828403121561123657600080fd5b6000611244848285016111d0565b91505092915050565b60006020828403121561125f57600080fd5b600082013567ffffffffffffffff81111561127957600080fd5b611285848285016111e5565b91505092915050565b6000602082840312156112a057600080fd5b60006112ae8482850161120f565b91505092915050565b6112c081611794565b82525050565b6112cf81611794565b82525050565b6112de816117a6565b82525050565b6112ed816117a6565b82525050565b60006112fe82611751565b6113088185611767565b93506113188185602086016117eb565b611321816118df565b840191505092915050565b600061133782611751565b6113418185611778565b93506113518185602086016117eb565b61135a816118df565b840191505092915050565b600061137082611751565b61137a8185611789565b935061138a8185602086016117eb565b80840191505092915050565b60006113a3602683611778565b91506113ae826118f0565b604082019050919050565b60006113c6601683611778565b91506113d18261193f565b602082019050919050565b60006113e9603083611778565b91506113f482611968565b604082019050919050565b600061140c601883611778565b9150611417826119b7565b602082019050919050565b600061142f602083611778565b915061143a826119e0565b602082019050919050565b600061145260008361175c565b915061145d82611a09565b600082019050919050565b6000611475601083611778565b915061148082611a0c565b602082019050919050565b60006080830160008301516114a360008601826112b7565b50602083015184820360208601526114bb82826112f3565b91505060408301516114d060408601826112d5565b5060608301516114e360608601826112b7565b508091505092915050565b6114f7816117d2565b82525050565b60006115098284611365565b915081905092915050565b600061151f82611445565b9150819050919050565b600060208201905061153e60008301846112c6565b92915050565b600060808201905061155960008301876112c6565b818103602083015261156b818661132c565b905061157a60408301856112e4565b61158760608301846112c6565b95945050505050565b600060408201905081810360008301526115aa818561132c565b90506115b960208301846112c6565b9392505050565b600060608201905081810360008301526115da818661132c565b90506115e960208301856112c6565b6115f660408301846112c6565b949350505050565b6000602082019050818103600083015261161781611396565b9050919050565b60006020820190508181036000830152611637816113b9565b9050919050565b60006020820190508181036000830152611657816113dc565b9050919050565b60006020820190508181036000830152611677816113ff565b9050919050565b6000602082019050818103600083015261169781611422565b9050919050565b600060208201905081810360008301526116b781611468565b9050919050565b600060208201905081810360008301526116d8818461148b565b905092915050565b60006020820190506116f560008301846114ee565b92915050565b6000611705611716565b90506117118282611850565b919050565b6000604051905090565b600067ffffffffffffffff82111561173b5761173a6118b0565b5b611744826118df565b9050602081019050919050565b600081519050919050565b600081905092915050565b600082825260208201905092915050565b600082825260208201905092915050565b600081905092915050565b600061179f826117b2565b9050919050565b60008115159050919050565b600073ffffffffffffffffffffffffffffffffffffffff82169050919050565b6000819050919050565b82818337600083830152505050565b60005b838110156118095780820151818401526020810190506117ee565b83811115611818576000848401525b50505050565b6000600282049050600182168061183657607f821691505b6020821081141561184a57611849611881565b5b50919050565b611859826118df565b810181811067ffffffffffffffff82111715611878576118776118b0565b5b80604052505050565b7f4e487b7100000000000000000000000000000000000000000000000000000000600052602260045260246000fd5b7f4e487b7100000000000000000000000000000000000000000000000000000000600052604160045260246000fd5b6000601f19601f8301169050919050565b7f4f776e61626c653a206e6577206f776e657220697320746865207a65726f206160008201527f6464726573730000000000000000000000000000000000000000000000000000602082015250565b7f556e61626c6520746f207472616e736665722066656500000000000000000000600082015250565b7f54686572652773206164647265737320636f6e6e656374656420746f2074686160008201527f7420544720494420616c72656164792e00000000000000000000000000000000602082015250565b7f50617373706f727420666565206973206e6f7420706169640000000000000000600082015250565b7f4f776e61626c653a2063616c6c6572206973206e6f7420746865206f776e6572600082015250565b50565b7f616c726561647920617070726f76656400000000000000000000000000000000600082015250565b611a3e81611794565b8114611a4957600080fd5b50565b611a55816117d2565b8114611a6057600080fd5b5056fea2646970667358221220e692f58b86a3df1876d501f7923d007b7b9d01b7494326054926a5aa5b6be25f64736f6c63430008040033",
  "linkReferences": {},
  "deployedLinkReferences": {}
}