{
  "_format": "hh-sol-artifact-1",
  "contractName": "EPassport",
  "sourceName": "contracts/EPassport.sol",
  "abi": [
    {
      "anonymous": false,
      "inputs": [
        {
          "indexed": true,
          "internalType": "address",
          "name": "previousOwner",
          "type": "address"
        },
        {
          "indexed": true,
          "internalType": "address",
          "name": "newOwner",
          "type": "address"
        }
      ],
      "name": "OwnershipTransferred",
      "type": "event"
    },
    {
      "anonymous": false,
      "inputs": [
        {
          "indexed": false,
          "internalType": "string",
          "name": "passportIdHash",
          "type": "string"
        },
        {
          "indexed": false,
          "internalType": "address",
          "name": "wallet_address",
          "type": "address"
        }
      ],
      "name": "passportApplied",
      "type": "event"
    },
    {
      "anonymous": false,
      "inputs": [
        {
          "indexed": false,
          "internalType": "string",
          "name": "passportIdHash",
          "type": "string"
        },
        {
          "indexed": false,
          "internalType": "address",
          "name": "wallet_address",
          "type": "address"
        },
        {
          "indexed": false,
          "internalType": "address",
          "name": "issuer",
          "type": "address"
        }
      ],
      "name": "passportApproved",
      "type": "event"
    },
    {
      "anonymous": false,
      "inputs": [
        {
          "indexed": false,
          "internalType": "string",
          "name": "passportIdHash",
          "type": "string"
        },
        {
          "indexed": false,
          "internalType": "address",
          "name": "wallet_address",
          "type": "address"
        },
        {
          "indexed": false,
          "internalType": "address",
          "name": "kyc_center",
          "type": "address"
        }
      ],
      "name": "passportBanned",
      "type": "event"
    },
    {
      "inputs": [
        {
          "internalType": "string",
          "name": "passportIdHash",
          "type": "string"
        },
        {
          "internalType": "string",
          "name": "ipfs_link",
          "type": "string"
        }
      ],
      "name": "applyForPassport",
      "outputs": [],
      "stateMutability": "payable",
      "type": "function"
    },
    {
      "inputs": [
        {
          "internalType": "string",
          "name": "passportIdHash",
          "type": "string"
        }
      ],
      "name": "approvePassport",
      "outputs": [],
      "stateMutability": "nonpayable",
      "type": "function"
    },
    {
      "inputs": [
        {
          "internalType": "string",
          "name": "passportIdHash",
          "type": "string"
        }
      ],
      "name": "exile",
      "outputs": [],
      "stateMutability": "nonpayable",
      "type": "function"
    },
    {
      "inputs": [
        {
          "internalType": "uint256",
          "name": "eid_",
          "type": "uint256"
        }
      ],
      "name": "getPassportByEid",
      "outputs": [
        {
          "components": [
            {
              "internalType": "string",
              "name": "ID_hash",
              "type": "string"
            },
            {
              "internalType": "string",
              "name": "IPFS_link",
              "type": "string"
            },
            {
              "internalType": "address",
              "name": "user_wallet",
              "type": "address"
            },
            {
              "internalType": "bool",
              "name": "approved",
              "type": "bool"
            },
            {
              "internalType": "address",
              "name": "KYC_operator",
              "type": "address"
            }
          ],
          "internalType": "struct EPassport.CitizenPassport",
          "name": "",
          "type": "tuple"
        }
      ],
      "stateMutability": "view",
      "type": "function"
    },
    {
      "inputs": [
        {
          "internalType": "string",
          "name": "passportIdHash",
          "type": "string"
        }
      ],
      "name": "getPassportByIdHash",
      "outputs": [
        {
          "components": [
            {
              "internalType": "string",
              "name": "ID_hash",
              "type": "string"
            },
            {
              "internalType": "string",
              "name": "IPFS_link",
              "type": "string"
            },
            {
              "internalType": "address",
              "name": "user_wallet",
              "type": "address"
            },
            {
              "internalType": "bool",
              "name": "approved",
              "type": "bool"
            },
            {
              "internalType": "address",
              "name": "KYC_operator",
              "type": "address"
            }
          ],
          "internalType": "struct EPassport.CitizenPassport",
          "name": "",
          "type": "tuple"
        }
      ],
      "stateMutability": "view",
      "type": "function"
    },
    {
      "inputs": [],
      "name": "owner",
      "outputs": [
        {
          "internalType": "address",
          "name": "",
          "type": "address"
        }
      ],
      "stateMutability": "view",
      "type": "function"
    },
    {
      "inputs": [],
      "name": "renounceOwnership",
      "outputs": [],
      "stateMutability": "nonpayable",
      "type": "function"
    },
    {
      "inputs": [
        {
          "internalType": "address",
          "name": "newOwner",
          "type": "address"
        }
      ],
      "name": "transferOwnership",
      "outputs": [],
      "stateMutability": "nonpayable",
      "type": "function"
    }
  ],
  "bytecode": "0x608060405261001261008060201b60201c565b600260006101000a81548173ffffffffffffffffffffffffffffffffffffffff021916908373ffffffffffffffffffffffffffffffffffffffff16021790555034801561005e57600080fd5b5061007b6100706100a960201b60201c565b6100b160201b60201c565b610175565b60008060009054906101000a900473ffffffffffffffffffffffffffffffffffffffff16905090565b600033905090565b60008060009054906101000a900473ffffffffffffffffffffffffffffffffffffffff169050816000806101000a81548173ffffffffffffffffffffffffffffffffffffffff021916908373ffffffffffffffffffffffffffffffffffffffff1602179055508173ffffffffffffffffffffffffffffffffffffffff168173ffffffffffffffffffffffffffffffffffffffff167f8be0079c531659141344cd1fd0a4f28419497f9722a3daafe3b4186f6b6457e060405160405180910390a35050565b611c4b80620001856000396000f3fe60806040526004361061007b5760003560e01c80638da5cb5b1161004e5780638da5cb5b1461013a5780639696eace146101655780639dd1b96214610181578063f2fde38b146101aa5761007b565b80630dd9764d1461008057806331dbb8e0146100bd57806333d0e9fc146100fa578063715018a614610123575b600080fd5b34801561008c57600080fd5b506100a760048036038101906100a29190611588565b6101d3565b6040516100b49190611914565b60405180910390f35b3480156100c957600080fd5b506100e460048036038101906100df9190611635565b61041b565b6040516100f19190611914565b60405180910390f35b34801561010657600080fd5b50610121600480360381019061011c9190611588565b61063f565b005b34801561012f57600080fd5b50610138610a7d565b005b34801561014657600080fd5b5061014f610b05565b60405161015c919061182b565b60405180910390f35b61017f600480360381019061017a91906115c9565b610b2e565b005b34801561018d57600080fd5b506101a860048036038101906101a39190611588565b610da7565b005b3480156101b657600080fd5b506101d160048036038101906101cc919061155f565b6111e5565b005b6101db6113cd565b6101e36113cd565b60006004846040516101f59190611814565b9081526020016040518091039020549050600560008281526020019081526020016000206040518060a001604052908160008201805461023490611a4e565b80601f016020809104026020016040519081016040528092919081815260200182805461026090611a4e565b80156102ad5780601f10610282576101008083540402835291602001916102ad565b820191906000526020600020905b81548152906001019060200180831161029057829003601f168201915b505050505081526020016001820180546102c690611a4e565b80601f01602080910402602001604051908101604052809291908181526020018280546102f290611a4e565b801561033f5780601f106103145761010080835404028352916020019161033f565b820191906000526020600020905b81548152906001019060200180831161032257829003601f168201915b505050505081526020016002820160009054906101000a900473ffffffffffffffffffffffffffffffffffffffff1673ffffffffffffffffffffffffffffffffffffffff1673ffffffffffffffffffffffffffffffffffffffff1681526020016002820160149054906101000a900460ff161515151581526020016003820160009054906101000a900473ffffffffffffffffffffffffffffffffffffffff1673ffffffffffffffffffffffffffffffffffffffff1673ffffffffffffffffffffffffffffffffffffffff168152505091508192505050919050565b6104236113cd565b61042b6113cd565b600560008481526020019081526020016000206040518060a001604052908160008201805461045990611a4e565b80601f016020809104026020016040519081016040528092919081815260200182805461048590611a4e565b80156104d25780601f106104a7576101008083540402835291602001916104d2565b820191906000526020600020905b8154815290600101906020018083116104b557829003601f168201915b505050505081526020016001820180546104eb90611a4e565b80601f016020809104026020016040519081016040528092919081815260200182805461051790611a4e565b80156105645780601f1061053957610100808354040283529160200191610564565b820191906000526020600020905b81548152906001019060200180831161054757829003601f168201915b505050505081526020016002820160009054906101000a900473ffffffffffffffffffffffffffffffffffffffff1673ffffffffffffffffffffffffffffffffffffffff1673ffffffffffffffffffffffffffffffffffffffff1681526020016002820160149054906101000a900460ff161515151581526020016003820160009054906101000a900473ffffffffffffffffffffffffffffffffffffffff1673ffffffffffffffffffffffffffffffffffffffff1673ffffffffffffffffffffffffffffffffffffffff1681525050905080915050919050565b6106476112dd565b73ffffffffffffffffffffffffffffffffffffffff16610665610b05565b73ffffffffffffffffffffffffffffffffffffffff16146106bb576040517f08c379a00000000000000000000000000000000000000000000000000000000081526004016106b2906118f4565b60405180910390fd5b60006004826040516106cd9190611814565b90815260200160405180910390205490506106e66113cd565b600560008381526020019081526020016000206040518060a001604052908160008201805461071490611a4e565b80601f016020809104026020016040519081016040528092919081815260200182805461074090611a4e565b801561078d5780601f106107625761010080835404028352916020019161078d565b820191906000526020600020905b81548152906001019060200180831161077057829003601f168201915b505050505081526020016001820180546107a690611a4e565b80601f01602080910402602001604051908101604052809291908181526020018280546107d290611a4e565b801561081f5780601f106107f45761010080835404028352916020019161081f565b820191906000526020600020905b81548152906001019060200180831161080257829003601f168201915b505050505081526020016002820160009054906101000a900473ffffffffffffffffffffffffffffffffffffffff1673ffffffffffffffffffffffffffffffffffffffff1673ffffffffffffffffffffffffffffffffffffffff1681526020016002820160149054906101000a900460ff161515151581526020016003820160009054906101000a900473ffffffffffffffffffffffffffffffffffffffff1673ffffffffffffffffffffffffffffffffffffffff1673ffffffffffffffffffffffffffffffffffffffff16815250509050600081606001901515908115158152505033816080019073ffffffffffffffffffffffffffffffffffffffff16908173ffffffffffffffffffffffffffffffffffffffff16815250508060056000848152602001908152602001600020600082015181600001908051906020019061096a92919061142a565b50602082015181600101908051906020019061098792919061142a565b5060408201518160020160006101000a81548173ffffffffffffffffffffffffffffffffffffffff021916908373ffffffffffffffffffffffffffffffffffffffff16021790555060608201518160020160146101000a81548160ff02191690831515021790555060808201518160030160006101000a81548173ffffffffffffffffffffffffffffffffffffffff021916908373ffffffffffffffffffffffffffffffffffffffff1602179055509050507fce00deba9f44b0e1d1cd0f1001cea320b00369e61058e3d65139ff3fb2d595f183826040015133604051610a7093929190611876565b60405180910390a1505050565b610a856112dd565b73ffffffffffffffffffffffffffffffffffffffff16610aa3610b05565b73ffffffffffffffffffffffffffffffffffffffff1614610af9576040517f08c379a0000000000000000000000000000000000000000000000000000000008152600401610af0906118f4565b60405180910390fd5b610b0360006112e5565b565b60008060009054906101000a900473ffffffffffffffffffffffffffffffffffffffff16905090565b6000600483604051610b409190611814565b90815260200160405180910390205414610b8f576040517f08c379a0000000000000000000000000000000000000000000000000000000008152600401610b86906118d4565b60405180910390fd5b610b9960036113a9565b6000610ba560036113bf565b905080600660003373ffffffffffffffffffffffffffffffffffffffff1673ffffffffffffffffffffffffffffffffffffffff1681526020019081526020016000208190555060006040518060a001604052808581526020018481526020013373ffffffffffffffffffffffffffffffffffffffff168152602001600015158152602001600073ffffffffffffffffffffffffffffffffffffffff16815250905080600560008481526020019081526020016000206000820151816000019080519060200190610c7692919061142a565b506020820151816001019080519060200190610c9392919061142a565b5060408201518160020160006101000a81548173ffffffffffffffffffffffffffffffffffffffff021916908373ffffffffffffffffffffffffffffffffffffffff16021790555060608201518160020160146101000a81548160ff02191690831515021790555060808201518160030160006101000a81548173ffffffffffffffffffffffffffffffffffffffff021916908373ffffffffffffffffffffffffffffffffffffffff16021790555090505081600485604051610d569190611814565b9081526020016040518091039020819055507f2578b8463fa9088621234109e3537776ec83fa33de185759f3a0616bfefe8e308433604051610d99929190611846565b60405180910390a150505050565b610daf6112dd565b73ffffffffffffffffffffffffffffffffffffffff16610dcd610b05565b73ffffffffffffffffffffffffffffffffffffffff1614610e23576040517f08c379a0000000000000000000000000000000000000000000000000000000008152600401610e1a906118f4565b60405180910390fd5b6000600482604051610e359190611814565b9081526020016040518091039020549050610e4e6113cd565b600560008381526020019081526020016000206040518060a0016040529081600082018054610e7c90611a4e565b80601f0160208091040260200160405190810160405280929190818152602001828054610ea890611a4e565b8015610ef55780601f10610eca57610100808354040283529160200191610ef5565b820191906000526020600020905b815481529060010190602001808311610ed857829003601f168201915b50505050508152602001600182018054610f0e90611a4e565b80601f0160208091040260200160405190810160405280929190818152602001828054610f3a90611a4e565b8015610f875780601f10610f5c57610100808354040283529160200191610f87565b820191906000526020600020905b815481529060010190602001808311610f6a57829003601f168201915b505050505081526020016002820160009054906101000a900473ffffffffffffffffffffffffffffffffffffffff1673ffffffffffffffffffffffffffffffffffffffff1673ffffffffffffffffffffffffffffffffffffffff1681526020016002820160149054906101000a900460ff161515151581526020016003820160009054906101000a900473ffffffffffffffffffffffffffffffffffffffff1673ffffffffffffffffffffffffffffffffffffffff1673ffffffffffffffffffffffffffffffffffffffff16815250509050600181606001901515908115158152505033816080019073ffffffffffffffffffffffffffffffffffffffff16908173ffffffffffffffffffffffffffffffffffffffff1681525050806005600084815260200190815260200160002060008201518160000190805190602001906110d292919061142a565b5060208201518160010190805190602001906110ef92919061142a565b5060408201518160020160006101000a81548173ffffffffffffffffffffffffffffffffffffffff021916908373ffffffffffffffffffffffffffffffffffffffff16021790555060608201518160020160146101000a81548160ff02191690831515021790555060808201518160030160006101000a81548173ffffffffffffffffffffffffffffffffffffffff021916908373ffffffffffffffffffffffffffffffffffffffff1602179055509050507f425c0ff4dfba8976f680edd0bb8cd915c8ca31839207163b7bbcc3b72f4dd42f838260400151336040516111d893929190611876565b60405180910390a1505050565b6111ed6112dd565b73ffffffffffffffffffffffffffffffffffffffff1661120b610b05565b73ffffffffffffffffffffffffffffffffffffffff1614611261576040517f08c379a0000000000000000000000000000000000000000000000000000000008152600401611258906118f4565b60405180910390fd5b600073ffffffffffffffffffffffffffffffffffffffff168173ffffffffffffffffffffffffffffffffffffffff1614156112d1576040517f08c379a00000000000000000000000000000000000000000000000000000000081526004016112c8906118b4565b60405180910390fd5b6112da816112e5565b50565b600033905090565b60008060009054906101000a900473ffffffffffffffffffffffffffffffffffffffff169050816000806101000a81548173ffffffffffffffffffffffffffffffffffffffff021916908373ffffffffffffffffffffffffffffffffffffffff1602179055508173ffffffffffffffffffffffffffffffffffffffff168173ffffffffffffffffffffffffffffffffffffffff167f8be0079c531659141344cd1fd0a4f28419497f9722a3daafe3b4186f6b6457e060405160405180910390a35050565b6001816000016000828254019250508190555050565b600081600001549050919050565b6040518060a001604052806060815260200160608152602001600073ffffffffffffffffffffffffffffffffffffffff168152602001600015158152602001600073ffffffffffffffffffffffffffffffffffffffff1681525090565b82805461143690611a4e565b90600052602060002090601f016020900481019282611458576000855561149f565b82601f1061147157805160ff191683800117855561149f565b8280016001018555821561149f579182015b8281111561149e578251825591602001919060010190611483565b5b5090506114ac91906114b0565b5090565b5b808211156114c95760008160009055506001016114b1565b5090565b60006114e06114db8461195b565b611936565b9050828152602081018484840111156114f857600080fd5b611503848285611a0c565b509392505050565b60008135905061151a81611be7565b92915050565b600082601f83011261153157600080fd5b81356115418482602086016114cd565b91505092915050565b60008135905061155981611bfe565b92915050565b60006020828403121561157157600080fd5b600061157f8482850161150b565b91505092915050565b60006020828403121561159a57600080fd5b600082013567ffffffffffffffff8111156115b457600080fd5b6115c084828501611520565b91505092915050565b600080604083850312156115dc57600080fd5b600083013567ffffffffffffffff8111156115f657600080fd5b61160285828601611520565b925050602083013567ffffffffffffffff81111561161f57600080fd5b61162b85828601611520565b9150509250929050565b60006020828403121561164757600080fd5b60006116558482850161154a565b91505092915050565b611667816119c4565b82525050565b611676816119c4565b82525050565b611685816119d6565b82525050565b60006116968261198c565b6116a08185611997565b93506116b0818560208601611a1b565b6116b981611b0f565b840191505092915050565b60006116cf8261198c565b6116d981856119a8565b93506116e9818560208601611a1b565b6116f281611b0f565b840191505092915050565b60006117088261198c565b61171281856119b9565b9350611722818560208601611a1b565b80840191505092915050565b600061173b6026836119a8565b915061174682611b20565b604082019050919050565b600061175e6026836119a8565b915061176982611b6f565b604082019050919050565b60006117816020836119a8565b915061178c82611bbe565b602082019050919050565b600060a08301600083015184820360008601526117b4828261168b565b915050602083015184820360208601526117ce828261168b565b91505060408301516117e3604086018261165e565b5060608301516117f6606086018261167c565b506080830151611809608086018261165e565b508091505092915050565b600061182082846116fd565b915081905092915050565b6000602082019050611840600083018461166d565b92915050565b6000604082019050818103600083015261186081856116c4565b905061186f602083018461166d565b9392505050565b6000606082019050818103600083015261189081866116c4565b905061189f602083018561166d565b6118ac604083018461166d565b949350505050565b600060208201905081810360008301526118cd8161172e565b9050919050565b600060208201905081810360008301526118ed81611751565b9050919050565b6000602082019050818103600083015261190d81611774565b9050919050565b6000602082019050818103600083015261192e8184611797565b905092915050565b6000611940611951565b905061194c8282611a80565b919050565b6000604051905090565b600067ffffffffffffffff82111561197657611975611ae0565b5b61197f82611b0f565b9050602081019050919050565b600081519050919050565b600082825260208201905092915050565b600082825260208201905092915050565b600081905092915050565b60006119cf826119e2565b9050919050565b60008115159050919050565b600073ffffffffffffffffffffffffffffffffffffffff82169050919050565b6000819050919050565b82818337600083830152505050565b60005b83811015611a39578082015181840152602081019050611a1e565b83811115611a48576000848401525b50505050565b60006002820490506001821680611a6657607f821691505b60208210811415611a7a57611a79611ab1565b5b50919050565b611a8982611b0f565b810181811067ffffffffffffffff82111715611aa857611aa7611ae0565b5b80604052505050565b7f4e487b7100000000000000000000000000000000000000000000000000000000600052602260045260246000fd5b7f4e487b7100000000000000000000000000000000000000000000000000000000600052604160045260246000fd5b6000601f19601f8301169050919050565b7f4f776e61626c653a206e6577206f776e657220697320746865207a65726f206160008201527f6464726573730000000000000000000000000000000000000000000000000000602082015250565b7f746869732070617373706f72744944206e756d62657220616c7265616479206160008201527f70706c6965640000000000000000000000000000000000000000000000000000602082015250565b7f4f776e61626c653a2063616c6c6572206973206e6f7420746865206f776e6572600082015250565b611bf0816119c4565b8114611bfb57600080fd5b50565b611c0781611a02565b8114611c1257600080fd5b5056fea264697066735822122032c62198f64d2f9817a729ae9590e005630b0bfb5dbb1a07bfbe85eaf963cd6f64736f6c63430008040033",
  "linkReferences": {},
  "deployedLinkReferences": {}
}